:100000000C942A000C9447000C9447000C94470071
:100010000C9447000C9447000C9447000C9465170F
:100020000C9447000C9447000C9447000C94470034
:100030000C9447000C9447000C9447000C94470024
:100040000C9447000C9447000C9447000C94470014
:100050000C94470011241FBECFE5D8E0DEBFCDBF12
:1000600010E0A0E6B0E0E4EBF9E402C005900D92E8
:10007000A83DB107D9F715E0A8EDB0E001C01D9289
:10008000A634B107E1F70E9467160C94D8240C94AB
:1000900000008330B9F0843028F4813071F0823070
:1000A00078F409C08530A1F0853080F0863099F071
:1000B0008730B1F412C0389801C0389A399804C01A
:1000C000389801C0389A399A3A980AC0389801C0CD
:1000D000389A399804C0389801C0389A399A3A9AAF
:1000E0003E9A3F983098319A329A359A3D98379A8D
:1000F0000895369A349BFECF24B135B1C9010895D5
:100100009C016AE070E00E947624E82F40E0C9017B
:100110006AE070E00E947624CB016AE070E00E9401
:1001200076249C0163E0880F991F6A95E1F7220FFE
:10013000331F820F931FE80FF0E0E370F070EF2B96
:1001400009F441E0842F0895482F6AE00E946A2450
:10015000282F30E074E0220F331F7A95E1F7842FC7
:100160000E946A24892F822B0895982F82958F7080
:100170002AE0829F802D11249F70890F089580911D
:10018000DD00882349F482E067E041E00E949E0E92
:1001900081E08093DD00089582E067E040E00E9406
:1001A0009E0E1092DD0008951F93CF93DF9310E011
:1001B00080E060E80E94511B812F67E00E943F1B96
:1001C0008AE70E945F1080E490E00E949B10C0E0EC
:1001D000D0E080E090E00E949B102196C038D105CD
:1001E000C1F70E94BB101F5F183011F7DF91CF914C
:1001F0001F9108950E945C108AEA0E945F1088EFA8
:1002000090E00E949B1081E090E00E949B100E9471
:10021000BB1008950E945C108AEA0E945F1088EF6C
:1002200090E00E949B108FEF90E00E949B100E9434
:10023000BB1008953F924F925F926F927F928F9280
:100240009F92AF92BF92CF92DF92EF92FF920F9365
:100250001F93DF93CF93CDB7DEB728970FB6F894EF
:10026000DEBF0FBECDBFE82FF0E0E456FF4F308079
:10027000832D992787FD9095A7E0CA2ED12CC81A07
:10028000D90AD694DC2CCC24D794C7944601AA244E
:1002900097FCA094BA2C1A8219829C838B833A947F
:1002A000232D30E03E832D8333944CC080E06FE7F4
:1002B0000E94511B832D3981831B67E00E943F1BE5
:1002C0000E945C108AE70E945F1080E490E00E9428
:1002D0009B10EFE74E2E512C612C712C480C591CB1
:1002E0006A1C7B1C85017401D886CF8213C08F8164
:1002F00098850E94D02490E0809590950E949B1054
:100300000894E11CF11C011D111D8F819885019637
:1003100098878F83E414F5040605170540F30E94BF
:10032000BB10A981BA811196BA83A983E0E8F0E0F5
:10033000CE0EDF1E80E890E0A0E0B0E0880E991EAF
:10034000AA1EBB1E8B819C81A981BA818A1B9B0B33
:10035000ED81FE818E179F070CF0A8CF28960FB66F
:10036000F894DEBF0FBECDBFCF91DF911F910F91EB
:10037000FF90EF90DF90CF90BF90AF909F908F90C5
:100380007F906F905F904F903F9008953F924F9273
:100390005F926F927F928F929F92AF92BF92CF9215
:1003A000DF92EF92FF920F931F93DF93CF93CDB71E
:1003B000DEB728970FB6F894DEBF0FBECDBFE82F8B
:1003C000F0E0E456FF4F3080832D992787FD90950C
:1003D00007E0C02ED12CC81AD90AD694DC2CCC2424
:1003E000D794C7944601AA2497FCA094BA2C1A82E9
:1003F00019829C838B833A94232D30E03E832D8396
:1004000033944AC080E06FE70E94511B832D3981ED
:10041000831B67E00E943F1B0E945C108AE70E94DA
:100420005F1080E490E00E949B10BFE74B2E512CA0
:10043000612C712C480C591C6A1C7B1C85017401B1
:10044000D886CF8211C08F8198850E94D02490E0F9
:100450000E949B100894E11CF11C011D111D8F814D
:100460009885019698878F83E414F504060517058F
:1004700050F30E94BB10A981BA811196BA83A98357
:10048000E0E8F0E0CE0EDF1E80E890E0A0E0B0E013
:10049000880E991EAA1EBB1E8B819C81A981BA81E0
:1004A0008A1B9B0BED81FE818E179F070CF0AACF54
:1004B00028960FB6F894DEBF0FBECDBFCF91DF9167
:1004C0001F910F91FF90EF90DF90CF90BF90AF9072
:1004D0009F908F907F906F905F904F903F90089586
:1004E0001F930E945C108AEA0E945F1088EF90E0E0
:1004F0000E949B108BEA0E947D100E94B410182F5E
:100500000E94BB10812F1F910895BF92CF92DF925E
:10051000EF92FF920F931F93DF93CF93CDB7DEB788
:100520002E970FB6F894DEBF0FBECDBFB82EC62EE5
:10053000142F0E945C100EE07E010894E11CF11C57
:10054000F701802F11928A95E9F71830E0F488EAD4
:100550000E945F10109FC0011124845790E00E94F8
:100560009B1089EA0E947D1087015EE0E52EF12C48
:10057000EC0EFD1E0E94AD10F80181938F01EE1567
:10058000FF05C1F754C0183099F588EA0E945F1042
:100590008CEF90E00E949B1089EA0E947D100E94DF
:1005A000AD1089830E94AD108A830E94AD108B83A9
:1005B0000E94B4108C830E94BB108AEA0E945F10D4
:1005C00080E090E00E949B108BEA0E947D108E01DB
:1005D0000B5F1F4F4EE0E42EF12CEC0EFD1E0E942F
:1005E000AD10F80181938F01EE15FF05C1F71FC013
:1005F000812F8950813100F58AEA0E945F10109F97
:10060000C0011124845790E00E949B108BEA0E9445
:100610007D1087013EE0E32EF12CEC0EFD1E0E94C2
:10062000AD10F80181938F01EE15FF05C1F70E940F
:10063000B4108E870E94BB1027E0D22EDC0C8C2DCC
:100640006D2D0E94511B8B2D67E00E943F1B8AE796
:100650000E945F1080E490E00E949B108E010F5F6B
:100660001F4F98E0E92EF12CEC0EFD1EF801819150
:100670008F0190E00E949B100E151F05B9F70E9494
:10068000BB108C2D6D2D0E94511B8B2D815067E06E
:100690000E943F1B8AE70E945F1080E490E00E9466
:1006A0009B108FE0E82EF12CEC0EFD1EF8018191DD
:1006B0008F0190E00E949B100E151F05B9F70E9454
:1006C000BB102E960FB6F894DEBF0FBECDBFCF91F4
:1006D000DF911F910F91FF90EF90DF90CF90BF902F
:1006E00008951F93CF93DF93EB0193E0899FC0019F
:1006F0001124C80FD91F11E682E0612F49910E9491
:100700008502195F1637C1F7DF91CF911F910895C8
:100710005F926F927F928F929F92AF92BF92CF9291
:10072000DF92EF92FF920F931F93CF93DF93E7E057
:100730005E2EAA24BB24650180E06FE70E94511B56
:10074000852D67E00E943F1B0E945C108AE70E9493
:100750005F1080E490E00E949B107FE7672E712C71
:10076000812C912C6A0C7B1C8C1C9D1C852D84502B
:10077000823020F0E5018601750124C0E501860183
:1007800075010EC0CE010E94D02490E08095909516
:100790000E949B100894E11CF11C011D111D219663
:1007A000E614F7040805190568F311C0CE010E948C
:1007B000D02490E00E949B100894E11CF11C011DC4
:1007C000111D2196E614F7040805190578F30E9417
:1007D000BB105A9480E890E0A0E0B0E0A80EB91EEB
:1007E000CA1EDB1E9FEF591609F0A6CF8AEA0E94A7
:1007F0005F1089EF90E00E949B108BEA0E947D10B1
:1008000068EDE62E60E0F62EE7010E94AD108993B8
:10081000A0E0CC3DDA07C9F70E94B41088830E949B
:10082000BB1018E387E0612FF70141917F010E941F
:100830008502195F1B35B1F7DF91CF911F910F91A1
:10084000FF90EF90DF90CF90BF90AF909F908F90F0
:100850007F906F905F900895AF92BF92CF92DF929A
:10086000EF92FF920F931F93DF93CF93CDB7DEB735
:100870002E970FB6F894DEBF0FBECDBFA82EB62EB2
:10088000E42E0E945C101EE0F12E8E010F5F1F4FC0
:10089000F8018F2D11928A95E9F788EA0E945F107E
:1008A000EF9C802D112490E00E949B1089EA0E9409
:1008B0007D107801BEE0CB2ED12CCC0EDD1E0E9427
:1008C000AD10F70181937F01EC15FD05C1F70E9482
:1008D000B4108E870E94BB10A7E0DA2EDB0C8B2DA4
:1008E0006D2D0E94511B8A2D67E00E943F1B8AE7F5
:1008F0000E945F1080E490E00E949B10F8E0EF2ED1
:10090000F12CEC0EFD1EF80181918F0190E00E9408
:100910009B100E151F05B9F70E94BB108B2D6D2D76
:100920000E94511B8A2D815067E00E943F1B8AE77D
:100930000E945F1080E490E00E949B1078018E017D
:10094000015F1F4FF70181917F0190E00E949B1092
:10095000E016F106B9F70E94BB102E960FB6F89478
:10096000DEBF0FBECDBFCF91DF911F910F91FF90E2
:10097000EF90DF90CF90BF90AF900895EF92FF92ED
:100980000F931F93F82EE62E8A01262F225FCA01AD
:100990006AE070E00E947624482F8F2D622F0E941B
:1009A0002C04C8016AE070E00E947624162F072FFD
:1009B0002E2D295F862F972F6AE070E00E94762403
:1009C000482F8F2D622F0E942C04812F902F6AE0D8
:1009D00070E00E947624CB016AE070E00E947624E9
:1009E000482F8F2D6E2D0E942C041F910F91FF9088
:1009F000EF900895FF920F931F93082FF62E142F58
:100A0000262F295F842F6AE00E946A24802F622F9C
:100A1000492F0E942C04812F6AE00E946A24482FEB
:100A2000802F6F2D0E942C041F910F91FF9008952D
:100A3000DF92EF92FF920F931F93DF93CF930F926A
:100A4000CDB7DEB703E0DD24D3947E010894E11C2A
:100A5000F11CD98282E0602F40E00E949E0E82E06D
:100A600062E0A7010E94260F8981882339F010E0F7
:100A700009C082E062E0A7010E94260F89818823D5
:100A8000C1F3102F82E0602F41E00E949E0E1123DF
:100A900019F40F5F0630E9F6812F0F90CF91DF91A7
:100AA0001F910F91FF90EF90DF9008950F931F9388
:100AB0000E94D40087E061E042E10E94850287E065
:100AC00068E043E10E94850287E06FE044E10E9414
:100AD000850287E066E143E00E94850287E06DE1E0
:100AE00048E10E94850287E064E248E00E948502B6
:100AF00087E06BE24DE00E94850287E062E346E01A
:100B00000E94850287E060E44CE00E94850287E055
:100B100067E448E00E94850287E06EE44DE00E94B1
:100B2000850287E065E542E10E94850284E060E39A
:100B300040E00E942C0484E067E340E00E942C0423
:100B400084E065E44CE00E94850284E06CE448E0C7
:100B50000E94850284E063E54DE00E94850280E307
:100B60006EE30E94511B82E067E00E943F1B8AE710
:100B70000E945F1080E490E00E949B1010E080ECE7
:100B800090E00E949B101F5F1E30C9F70E94BB10AF
:100B900000E00E941805833059F4002339F484E002
:100BA00060E34FE50E94FA040FE5F3CF05500AC059
:100BB000843071F40F3529F460E340E00E94FA04B8
:100BC000E7CF0B5F84E060E3402F0E94FA04E1CF9F
:100BD0008530F9F60E94D40087E061E04AE00E9487
:100BE000850287E068E044E00E94850287E06FE0CC
:100BF00044E00E94850287E066E14FE00E948502A2
:100C000087E064E246E00E94850287E06BE24EE006
:100C10000E94850287E062E348E00E94850287E047
:100C200069E34DE00E94850287E060E446E00E94AF
:100C3000850284E060E3402F0E94FA0484E065E4CA
:100C40004CE00E94850284E06CE448E00E9485024A
:100C500084E063E54DE00E94850280E36EE30E943C
:100C6000511B82E067E00E943F1B8AE70E945F10F1
:100C700080E490E00E949B1010E080EC90E00E94E5
:100C80009B101F5F1E30C9F70E94BB1008C00E9456
:100C90009413015084E060E3402F0E94FA04002383
:100CA000B1F781E01F910F9108952F923F924F92DB
:100CB0005F926F927F928F929F92AF92BF92CF92EC
:100CC000DF92EF92FF920F931F93DF93CF93CDB7F5
:100CD000DEB729970FB6F894DEBF0FBECDBF0E94D6
:100CE000D4004C802A80BB8080E0BE016F5F7F4FC4
:100CF0000E94251483E0BE016B5F7F4F0E94FD13AD
:100D00008B81482F4F714B8342954F709AE0499FDA
:100D1000402D11248F70480F85E069E20E94FA048B
:100D200087E360E80E94511B85E067E00E943F1B5B
:100D30008AE70E945F1080E490E00E949B1000E828
:100D400010E0F80181918F0190E00E949B10F0E08B
:100D500007381F07B1F70E94BB1087E360E80E94C5
:100D6000511B84E067E00E943F1B8AE70E945F10EE
:100D700080E490E00E949B10F80181918F0190E047
:100D80000E949B10F0E00E381F07B1F70E94BB10C5
:100D90008A81482F42954F709AE0499F402D112437
:100DA0008F70480F85E06EE30E94FA048C818823DF
:100DB00021F085E06CE44FE003C085E06CE440E0A6
:100DC0000E94850285E063E54CE00E9485028E81E9
:100DD000482F42954F709AE0499F402D11248F7003
:100DE000480F82E064E10E94FA0482E260E80E9417
:100DF000511B82E067E00E943F1B8AE70E945F1060
:100E000080E490E00E949B108EE8C82E80E0D82EEF
:100E10008601F80181918F0190E00E949B10F0E023
:100E200005391F07B1F70E94BB1082E260E80E94FB
:100E3000511B81E067E00E943F1B8AE70E945F1020
:100E400080E490E00E949B107801F80181918F016D
:100E500090E00E949B10F0E00C391F07B1F70E9450
:100E6000BB108F81482F42954F709AE0499F402DCB
:100E700011248F70480F82E069E20E94FA0487E330
:100E800060E80E94511B82E067E00E943F1B8AE7F6
:100E90000E945F1080E490E00E949B10F601819117
:100EA0006F0190E00E949B10F5E9CF16F0E0DF069D
:100EB000A9F70E94BB1087E360E80E94511B81E004
:100EC00067E00E943F1B8AE70E945F1080E490E089
:100ED0000E949B10F70181917F0190E00E949B107E
:100EE000FCE9EF16F0E0FF06A9F70E94BB1082E0D4
:100EF0006EE342E00E942C048885482F42954F7093
:100F00009AE0499F402D11248F70480F82E065E4DC
:100F100050E00E94BE048D8181506BE670E00E941B
:100F200071030AE0A02E0E941805382E80E0BE0151
:100F30006F5F7F4F0E942514CB80CB1481F08FE12F
:100F4000C822CB824C2D42954F704A9D402D1124D2
:100F50008C2D8F70480F85E069E20E94FA04BA80F8
:100F6000B21469F04B2D42954F704A9D402D1124CB
:100F70008B2D8F70480F85E06EE30E94FA041C8170
:100F80001415C9F0112361F085E06CE44FE00E9474
:100F9000850285E063E54CE00E948502412E0BC08E
:100FA00085E06CE440E00E94850285E063E54CE06A
:100FB0000E948502442483E0BE016B5F7F4F0E9444
:100FC000FD13DE80D71421F4F52C8401E62C3AC001
:100FD0004D2D42954F704A9D402D11248D2D8F70BF
:100FE000480F82E064E10E94FA04EF80E61469F0A1
:100FF0004E2D42954F704A9D402D11248E2D8F709D
:10100000480F82E069E20E94FA04088519850815F4
:10101000190571F0802F402F42954F704A9D402D49
:1010200011248F70480F82E065E450E00E94BE04F6
:10103000FD80F51431F08F2D81506BE670E00E9439
:1010400071037D2CE5E03E1631F02B2CBC2C5F2C7F
:1010500048016E2C68CF81E029960FB6F894DEBF68
:101060000FBECDBFCF91DF911F910F91FF90EF90F9
:10107000DF90CF90BF90AF909F908F907F906F90B8
:101080005F904F903F902F9008950F931F930E9471
:10109000880311E00E941805833069F4113041F48F
:1010A00081E00E94C60183E00E941A0113E0F2CFA2
:1010B000012F01500DC0843099F4133039F483E0CE
:1010C0000E94C60181E00E941A01E3CF012F0F5F49
:1010D000812F0E94C601802F0E941A01102FDACFA3
:1010E0008530C1F6113019F40E94560509C012303E
:1010F00019F40E94550604C0133011F40E94BF0079
:1011000081E01F910F9108958F929F92AF92BF92AD
:10111000CF92DF92EF92FF920F931F93DF93CF93C3
:10112000CDB7DEB769970FB6F894DEBF0FBECDBF5F
:101130000E94D400DE011196E0ECF0E08AE001901C
:101140000D928150E1F77E010894E11CF11C8701AA
:1011500094E1BBE0CB2ED12CCC0EDD1E802F8E195E
:10116000863011F4925F01C0995F87E0692FF80122
:1011700041918F01998F0E948502998D0C151D0553
:1011800069F785E069E240E00E942C0485E060E3B5
:1011900041E00E942C0487E360E80E94511B85E037
:1011A00067E00E943F1B8AE70E945F1080E490E0A6
:1011B0000E949B1000E810E0F80181918F0190E0FF
:1011C0000E949B10F0E007381F07B1F70E94BB1088
:1011D00087E360E80E94511B84E067E00E943F1BA8
:1011E0008AE70E945F1080E490E00E949B10F80163
:1011F00081918F0190E00E949B10F0E00E381F0754
:10120000B1F70E94BB1085E06EE340E00E942C0421
:1012100085E065E440E00E942C0485E06CE440E059
:101220000E94850285E063E54CE00E94850282E031
:1012300064E142E00E942C0482E06BE148E00E94FD
:101240002C04DE011B96E2EBF0E08EE001900D92A3
:101250008150E1F782E260E80E94511B82E067E082
:101260000E943F1B8AE70E945F1080E490E00E948A
:101270009B10ABE0CA2ED12CCC0EDD1E8601F2E114
:10128000EF2EF12CEC0EFD1EF80181918F0190E004
:101290000E949B100E151F05B9F70E94BB1082E239
:1012A00060E80E94511B81E067E00E943F1B8AE7D3
:1012B0000E945F1080E490E00E949B10E2E18E2E7D
:1012C000912C8C0E9D1E780179E1A72EB12CAC0ECD
:1012D000BD1EF70181917F0190E00E949B10EA14EE
:1012E000FB04B9F70E94BB1082E069E241E00E9472
:1012F0002C0482E060E342E00E942C0487E360E873
:101300000E94511B82E067E00E943F1B8AE70E9417
:101310005F1080E490E00E949B10F60181916F01C4
:1013200090E00E949B10C016D106B9F70E94BB1036
:1013300087E360E80E94511B81E067E00E943F1B49
:101340008AE70E945F1080E490E00E949B10F40105
:1013500081914F0190E00E949B108E149F04B9F779
:101360000E94BB1082E06EE342E00E942C0482E007
:1013700065E440E00E942C0482E06CE442E00E94BC
:101380002C0482E063E543E00E942C0482E061E6E5
:1013900043E10E94850282E068E647E00E94850200
:1013A00082E06FE644E10E948502DD24DD2009F041
:1013B00058C089E267E30E94511B83E067E00E9406
:1013C0003F1B8AE70E945F1080E490E00E949B1020
:1013D00010E080EC90E00E949B101F5F1E30C9F768
:1013E0000E94BB1001E00E941805833059F40130BF
:1013F00039F485E069E24CE00E94FA040CE0F3CF96
:1014000001500BC0843079F40C3031F485E069E28E
:1014100041E00E94FA04E6CF0F5F85E069E2402FC9
:101420000E94FA04E0CF8530F1F689E267E30E947A
:10143000511B83E067E00E943F1B8AE70E945F1018
:1014400080E490E00E949B1010E080E090E00E9419
:101450009B101F5F1E30C9F7802F0E94A400B82E7A
:101460005BC0F1E0DF1609F05AC08EE36CE40E9425
:10147000511B83E067E00E943F1B8AE70E945F10D8
:1014800080E490E00E949B1010E080EC90E00E94CD
:101490009B101F5F1E30C9F70E94BB1000E00E9426
:1014A0001805833059F4002339F485E06EE34BE3EB
:1014B0000E94FA040BE3F3CF01500BC0843079F49F
:1014C0000B3331F485E06EE340E00E94FA04E6CF8E
:1014D0000F5F85E06EE3402F0E94FA04E0CF853075
:1014E000F1F68EE36CE40E94511B83E067E00E94FA
:1014F0003F1B8AE70E945F1080E490E00E949B10EF
:1015000010E080E090E00E949B101F5F1E30C9F742
:10151000802F0E94A400A82E0E94BB1035C282E03A
:10152000D81609F04CC08CE46AE50E94511B83E098
:1015300067E00E943F1B8AE70E945F1080E490E012
:101540000E949B1010E080EC90E00E949B101F5FB7
:101550001E30C9F70E94BB1000E00E941805182F2A
:101560008350823078F4002339F485E06CE44FE056
:101570000E94850201E006C085E06CE440E00E9424
:10158000850200E0153049F78CE46AE50E94511BA2
:1015900083E067E00E943F1B8AE70E945F1080E4BF
:1015A00090E00E949B1010E080E090E00E949B1071
:1015B0001F5F1E30C9F70E94BB10902EE5C1E3E00B
:1015C000DE1609F07EC08EE36AE50E94511B80E0C2
:1015D00067E00E943F1B8AE70E945F1080E490E072
:1015E0000E949B1010E080EC90E00E949B101F5F17
:1015F0001C31C9F70E94BB1007EE17E00E941805C6
:10160000833081F4F7E0073E1F0749F482E065E488
:1016100044E358E00E94BE0404E318E0EFCF015019
:1016200010400FC0843099F488E00433180739F46F
:1016300082E065E447EE57E00E94BE04DDCF0F5F15
:101640001F4F82E065E4A8010E94BE04D7CF853019
:10165000A9F68EE36AE50E94511B80E067E00E94D4
:101660003F1B8AE70E945F1080E490E00E949B107D
:10167000FF2480E090E00E949B10F394ECE1FE16C2
:10168000C1F7C8016AE070E00E947624482FC801C3
:101690006AE070E00E947624CB016AE070E00E946C
:1016A00076249C0163E0880F991F6A95E1F7220F69
:1016B000331F820F931F840F0E94A400F82E8824EA
:1016C0002BCFF4E0DF1609F058C089E267E30E94EF
:1016D000511B80E067E00E943F1B8AE70E945F1079
:1016E00080E490E00E949B1010E080EC90E00E946B
:1016F0009B101F5F1E30C9F70E94BB100CE00E94B8
:101700001805833051F4013031F482E069E24CE095
:101710000E94FA04F3CF01500CC0843081F40C30E5
:1017200039F482E069E241E00E94FA0401E0E7CF87
:101730000F5F82E069E2402F0E94FA04E0CF85301B
:10174000F1F689E267E30E94511B80E067E00E94A6
:101750003F1B8AE70E945F1080E490E00E949B108C
:1017600010E080E090E00E949B101F5F1E30C9F7E0
:10177000802F0E94A400E82ECFCE85E0D81609F075
:101780009CC084E162E20E94511B80E067E00E94FD
:101790003F1B8AE70E945F1080E490E00E949B104C
:1017A00010E080EC90E00E949B101F5F1E30C9F794
:1017B0000E94BB101CE10E9418058330A1F5113076
:1017C00081F5E2E0EE1699F48F2D982D0E948000AD
:1017D000882339F082E064E14DE10E94FA041DE1C2
:1017E000EACF82E064E14CE10E94FA04E3CFF4E046
:1017F000EF1649F086E0E81631F0E9E0EE1619F050
:10180000FBE0EF1639F482E064E14EE10E94FA0455
:101810001EE1D1CF82E064E14FE10E94FA041FE1B2
:10182000CACF115025C0843049F582E0E81661F432
:101830008F2D982D0E948000882319F01D31B9F456
:1018400014C01C31A1F411C0E4E0EE1649F0F6E03A
:10185000EF1631F089E0E81619F0EBE0EE1619F416
:101860001E3129F402C01F3111F411E001C01F5FC5
:1018700082E064E1412F0E94FA049DCF853009F097
:101880009ACF84E162E20E94511B80E067E00E94EF
:101890003F1B8AE70E945F1080E490E00E949B104B
:1018A00000E080E090E00E949B100F5F0E30C9F7CF
:1018B000812F0E94A400C82E2FCE81E666E70E94E9
:1018C000511B80E067E00E943F1B8AE70E945F1087
:1018D00080E490E00E949B1010E080EC90E00E9479
:1018E0009B101F5F1531C9F70E94BB1006E00E94D4
:1018F0001805833071F4013039F486E06BE670E04E
:101900000E94710307E0F3CF102F1150812F8150F7
:101910000EC0843091F4073039F480E06BE670E05B
:101920000E94710301E0E3CF102F1F5F802F6BE651
:1019300070E00E947103012FDACF8530C1F681E695
:1019400066E70E94511B80E067E00E943F1B8AE728
:101950000E945F1080E490E00E949B1010E080E005
:1019600090E00E949B101F5F1531C9F70E94BB10C9
:101970008B2D6A2D40E0292D0E947914802F6C2D2B
:101980004E2D2F2D0E945114D394F7E0DF1609F04D
:101990000DCD81E069960FB6F894DEBF0FBECDBFC6
:1019A000CF91DF911F910F91FF90EF90DF90CF903B
:1019B000BF90AF909F908F900895EF92FF920F93FA
:1019C0001F93DF93CF93CDB7DEB72D970FB6F89463
:1019D000DEBF0FBECDBF0E94D400DE011196EAEC3F
:1019E000F0E08DE001900D928150E1F77E010894C6
:1019F000E11CF11C10E000E0153011F0193011F479
:101A0000025F01C0095F87E0602FF70141917F010C
:101A10000E9485021F5F1D3079F718EDE12E10E05E
:101A2000F12E00E083E0602F40E00E948502802FCD
:101A300068E00E94511B81E067E00E943F1B8AE73B
:101A40000E945F1080E490E00E949B1010E083E011
:101A500090E00E949B101F5F1730C9F70E94BB10D7
:101A600010E00E941805833051F4112331F4602FE7
:101A700049E10E94850219E1F4CF11500BC0843076
:101A800079F4193131F483E0602F40E00E9485023F
:101A9000E7CF1F5F83E0602F412F0E948502E1CFD7
:101AA0008530F9F6F7011083802F68E00E94511B02
:101AB00081E067E00E943F1B8AE70E945F1080E49C
:101AC00090E00E949B1010E080E090E00E949B104C
:101AD0001F5F1730C9F70E94BB10095F0894E11C13
:101AE000F11C033209F09ECF8AEA0E945F1089EF51
:101AF00090E00E949B108091D80090E00E949B1083
:101B00008091D90090E00E949B108091DA0090E0D3
:101B10000E949B108091DB0090E00E949B108091BE
:101B2000DC0090E00E949B100E94BB1081E02D968B
:101B30000FB6F894DEBF0FBECDBFCF91DF911F91DE
:101B40000F91FF90EF90089582E062E040E00E94E4
:101B5000F50D82E062E00E947D0F82E063E041E0EB
:101B60000E94F50D82E064E041E00E94F50D82E004
:101B700065E041E00E94F50D82E063E041E00E94F3
:101B80009E0E82E064E041E00E949E0E82E065E0ED
:101B900041E00E949E0E0895813079F0813028F056
:101BA000823099F0833001F518C0662311F41ABA17
:101BB00008956F3FC9F46ABB0895662311F417BAFC
:101BC00008956F3F89F467BB0895662311F414BA32
:101BD00008956F3F49F464BB0895662311F411BA68
:101BE00008956F3F09F461BB0895813029F1813078
:101BF00038F0823009F43CC0833009F06EC053C025
:101C0000442361F42AB381E090E002C0880F991F59
:101C10006A95E2F7809582238ABB0895413009F0E6
:101C20005CC02AB381E090E002C0880F991F6A95DA
:101C3000E2F7282B2ABB0895442361F427B381E0FF
:101C400090E002C0880F991F6A95E2F78095822381
:101C500087BB0895413009F040C027B381E090E090
:101C600002C0880F991F6A95E2F7282B27BB0895B9
:101C7000442361F424B381E090E002C0880F991FEF
:101C80006A95E2F78095822384BB0895413029F557
:101C900024B381E090E002C0880F991F6A95E2F7B3
:101CA000282B24BB0895442361F421B381E090E004
:101CB00002C0880F991F6A95E2F78095822381BB45
:101CC0000895413051F421B381E090E002C0880FC3
:101CD000991F6A95E2F7282B21BB0895662361F0CE
:101CE0006F3FD9F4813021F1813000F1823011F160
:101CF000833019F562BB0895813049F0813028F0B6
:101D0000823039F08330C9F406C01BBA089518BA7E
:101D1000089515BA089512BA0895813049F08130B6
:101D200028F0823039F0833041F406C06BBB08954F
:101D300068BB089565BB089562BB08954423C9F14B
:101D4000413009F06EC0813099F0813030F082303E
:101D5000D1F0833009F065C021C02BB381E090E061
:101D600002C0880F991F6A95E2F7282B2BBB0895B4
:101D700028B381E090E002C0880F991F6A95E2F7CE
:101D8000282B28BB089525B381E090E002C0880F7E
:101D9000991F6A95E2F7282B25BB089522B381E0AD
:101DA00090E002C0880F991F6A95E2F7282B22BBAA
:101DB0000895813099F0813028F08230D9F0833055
:101DC00081F524C02BB381E090E002C0880F991FF9
:101DD0006A95E2F7809582238BBB089528B381E052
:101DE00090E002C0880F991F6A95E2F780958223E0
:101DF00088BB089525B381E090E002C0880F991F49
:101E00006A95E2F78095822385BB089522B381E02D
:101E100090E002C0880F991F6A95E2F780958223AF
:101E200082BB0895FB01813049F0813028F0823077
:101E300039F0833051F407C089B303C086B301C0C1
:101E400083B38083089580B380830895FA0181303D
:101E500049F0813028F0823039F08330C1F40EC06F
:101E600089B303C086B301C083B390E002C09595E7
:101E700087956A95E2F781708083089580B390E03A
:101E800002C0959587956A95E2F7817080830895E1
:101E9000813091F0813028F08230C9F0833061F5D3
:101EA00021C02BB381E090E002C0880F991F6A9592
:101EB000E2F728272BBB089528B381E090E002C009
:101EC000880F991F6A95E2F7282728BB089525B344
:101ED00081E090E002C0880F991F6A95E2F72827F9
:101EE00025BB089522B381E090E002C0880F991FBE
:101EF0006A95E2F7282722BB0895813091F081305E
:101F000028F08230C9F0833061F521C02BB381E025
:101F100090E002C0880F991F6A95E2F7282B2BBB2F
:101F2000089528B381E090E002C0880F991F6A9558
:101F3000E2F7282B28BB089525B381E090E002C08A
:101F4000880F991F6A95E2F7282B25BB089522B3C5
:101F500081E090E002C0880F991F6A95E2F7282B74
:101F600022BB089590E0FC01EE0FFF1FE80FF91F60
:101F7000E252FF4F60835283418308951F93CF93B2
:101F8000DF93182FCEEDD0E06881812F0E946A2464
:101F9000992319F4E981FA810995239680E0CD3ED1
:101FA000D80791F7DF91CF911F9108950E94D31226
:101FB0006091ED006B3069F48091A000813069F58B
:101FC0008FEF8093A0008AE08093ED0080E06AE0CC
:101FD0000DC0662391F48091A0008F3F81F481E0D1
:101FE0008093A0008093ED0080E061E00E94C51224
:101FF00080E690E00E946E1208956B3070F480E0ED
:102000000E94C5128091ED009091A000890F8093ED
:10201000ED0080E690E00E946E12089583E063E098
:1020200041E00E94F50D83E064E041E00E94F50D7F
:102030008091A100813081F483E063E041E00E945F
:102040009E0E83E064E040E00E949E0E8091A1001D
:1020500081958093A10008958F3F79F483E063E038
:1020600040E00E949E0E83E064E041E00E949E0EEC
:102070008091A10081958093A100089583E062E0A2
:1020800041E00E94F50D83E062E00E94480F089550
:1020900083E061E041E00E94F50D83E061E00E9491
:1020A000480F089583E060E041E00E94F50D83E071
:1020B00060E00E94480F089580E280B90895982F4B
:1020C00084EA86BF06B607FEFDCF81B1887F8830DF
:1020D00011F080E0089593B984E886BF06B607FE44
:1020E000FDCF81B1887F883111F481E0089580327D
:1020F00011F083E0089582E00895982F84EA86BF66
:1021000006B607FEFDCF81B1887F803111F080E0F7
:10211000089593B984E886BF06B607FEFDCF81B166
:10212000887F803411F481E00895883411F083E0D1
:10213000089582E0089583B984E886BF06B607FE55
:10214000FDCF81B1887F883211F480E0089580331B
:1021500011F082E0089581E0089584EC86BF06B610
:1021600007FEFDCF83B1089584E886BF06B607FE5B
:10217000FDCF83B1089584E986BF06B604FCFDCF88
:1021800008958EBB9FBB0895E199FECF9FBB8EBB88
:102190006DBBE29AE19A0895E199FECF9FBB8EBB99
:1021A000E09A8DB308958FB780688FBF08958FB779
:1021B00080688FBF8BB780648BBF85B78E7F85BFEC
:1021C00085B7826085BF08958FB780688FBF8BB752
:1021D00080688BBF85B7846085BF85B7886085BF01
:1021E00008958FB780688FBF8BB780628BBF84B72D
:1021F0008F7B84BF08959F92AF92BF92CF92DF9260
:10220000EF92FF920F931F93DF93CF930F92CDB76F
:10221000DEB781E08983EE24FF245E010894A11CCF
:10222000B11C93E6992E84E0C82ECE0C82E06C2D72
:1022300040E00E949E0E87010E551F4FDD2482E074
:102240006D2DA5010E94260F8981882371F4F80164
:1022500080818093EE0005C082E06D2DA5010E9473
:10226000260F89818823C1F304C0813011F4909234
:10227000EE00D3940C5F1F4FF4E0DF1601F782E00D
:102280006C2D41E00E949E0E0894E11CF11C84E03C
:10229000E816F10441F68091EE000F90CF91DF91A6
:1022A0001F910F91FF90EF90DF90CF90BF90AF9074
:1022B0009F90089582E060E040E00E94F50D82E08A
:1022C00061E040E00E94F50D82E062E040E00E94A3
:1022D000F50D82E063E040E00E94F50D82E060E0F1
:1022E0000E947D0F82E061E00E947D0F82E062E04B
:1022F0000E947D0F82E063E00E947D0F82E064E037
:1023000041E00E94F50D82E065E041E00E94F50D9C
:1023100082E066E041E00E94F50D82E067E041E086
:102320000E94F50D82E064E041E00E949E0E82E092
:1023300065E041E00E949E0E82E066E041E00E947E
:102340009E0E82E067E041E00E949E0E0895FF929B
:102350000F931F93F82E83E061E041E00E949E0EF0
:1023600083E062E040E00E949E0E83E063E040E094
:102370000E949E0E8BB39F2D907F8F70982B9BBBDE
:1023800083E063E041E00E949E0E00ED17E0C8018B
:102390000197F1F783E063E040E00E949E0EC801E0
:1023A0000197F1F78BB3F29490EFF9228F708F2998
:1023B0008BBB83E063E041E00E949E0EC801019761
:1023C000F1F783E063E040E00E949E0EC8010197B0
:1023D000F1F71F910F91FF9008959F92AF92BF92D6
:1023E000CF92DF92EF92FF920F931F937B018C01AC
:1023F000611571058105910511F480E30BC097FF0C
:102400000BC010950095F094E094E11CF11C011DA7
:10241000111D8DE20E94A711AA24BB2465019924F5
:1024200028C0C801B7012AE030E040E050E00E9437
:10243000AC24A60EB71EC81ED91EC801B7012AE0DB
:1024400030E040E050E00E94AC24C901DA017C0198
:102450008D01E114F1040105110551F0C601B5012A
:102460002AE030E040E050E00E944B245B016C0128
:102470009394E114F1040105110599F619C0C60100
:10248000B5012AE030E040E050E00E948A24862F27
:10249000805D0E94A711C601B5012AE030E040E04E
:1024A00050E00E948A24C901DA015C016D019A940E
:1024B000A114B104C104D10411F704C080E30E9447
:1024C000A7119A949920D1F71F910F91FF90EF9047
:1024D000DF90CF90BF90AF909F900895CF93DF9300
:1024E000EC0103C00E94A711219688818823D1F7AF
:1024F000DF91CF910895FF920F931F93F82E83E001
:1025000061E040E00E949E0E83E062E040E00E94B5
:102510009E0E83E063E040E00E949E0E8BB39F2DF1
:10252000907F8F70982B9BBB83E063E041E00E941B
:102530009E0E00ED17E0C8010197F1F783E063E01C
:1025400040E00E949E0EC8010197F1F78BB3F29410
:1025500020EFF2228F708F298BBB83E063E041E094
:102560000E949E0EC8010197F1F783E063E040E00E
:102570000E949E0EC8010197F1F71F910F91FF90E5
:10258000089581E00E947B120895882329F4862F04
:1025900080580E947B120895813021F4862F805448
:1025A0000E947B12089580E064E041E00E94F50DF6
:1025B00080E065E041E00E94F50D80E066E041E0EA
:1025C0000E94F50D80E067E041E00E94F50D83E098
:1025D00061E041E00E94F50D83E062E041E00E948D
:1025E000F50D83E063E041E00E94F50D83E30E9476
:1025F0007B1282E30E947B1288E20E947B128CE0B5
:102600000E947B1281E00E947B1282E00E947B127A
:1026100008958FB9779BFECF8FB1089581E064E074
:1026200041E00E949E0E089581E064E040E00E9437
:102630009E0E089581E064E040E00E94F50D81E087
:1026400065E040E00E94F50D81E066E041E00E9417
:10265000F50D81E067E040E00E94F50D80E48DB962
:10266000089581E064E041E00E94F50D81E065E0BD
:1026700041E00E94F50D81E066E040E00E94F50D2A
:1026800081E067E041E00E94F50D83E58DB9089592
:1026900083B7877F83BF83B78F7B83BF89B7816011
:1026A00089BF89B78D7F89BF089583B7816083BF54
:1026B00083B78D7F83BF83B7846083BF089583B75B
:1026C0008E7F83BF83B78D7F83BF83B78B7F83BFAD
:1026D000089528EE33E040E050E00E944B2437E0BC
:1026E00096958795779567953A95D1F7272F382F47
:1026F000492F55272093EF003093F0004093F100CD
:102700005093F20020E031E040E050E0261B310918
:10271000410951092093F3003093F4004093F500F0
:102720005093F60022BF08950E9448130E9455134B
:1027300026E237E008B600FEFDCF2150304088B7D2
:10274000816088BF12161306ACF30E945F130895D0
:102750008CBF08958D9A8FB58E7F8FBD8FB58260A7
:102760008FBD8EB588608EBD8EB580618EBD8FB5F4
:102770008F7B8FBD8FB580688FBD08958EB58E7F9E
:102780008EBD8EB58D7F8EBD8EB584608EBD089555
:102790008EB58E7F8EBD8EB58D7F8EBD8EB58B7FB7
:1027A0008EBD08959BBD8ABD77BD66BD08958CB969
:1027B0005D9BFECF089520E004C0ECB95D9BFECF89
:1027C0002F5FFC01E20FF11DE081EE23B1F70895C8
:1027D0005F9BFECF8CB1089583E061E041E00E94F1
:1027E000F50D83E060E040E00E94F50D83E389B9D8
:1027F000539A549A86E880BD0895FF920F931F93D1
:10280000F82E8B010E945C1080ED0E945F108F2DCE
:1028100090E00E949B1081ED0E947D100E94AD10FF
:10282000F80180830E94AD10F80181830E94AD10F1
:10283000F80182830E94B410F801838314820E94FD
:10284000BB101F910F91FF900895FF920F931F935C
:10285000F82E8B010E945C1080ED0E945F108F2D7E
:1028600090E00E949B1081ED0E947D100E94AD10AF
:10287000F80180830E94AD10F80181830E94B4109A
:10288000F801828390E08072907025E0959587959D
:102890002A95E1F783830E94BB101F910F91FF904F
:1028A0000895EF92FF920F931F93182F062FF42E87
:1028B000E22E0E945C1080ED0E945F1083E090E0A9
:1028C0000E949B10812F90E00E949B10802F90E02F
:1028D0000E949B108F2D90E00E949B108E2D90E007
:1028E0000E949B100E94BB101F910F91FF90EF90D0
:1028F0000895EF92FF920F931F93082FE62EF42E68
:10290000122F0E945C1080ED0E945F1080E090E02A
:102910000E949B108F2D90E00E949B108E2D90E0C6
:102920000E949B1000641295110F107E812F802B46
:1029300090E00E949B100E94BB101F910F91FF908E
:10294000EF9008958091F9009091FA000895809198
:10295000F7009091F80008950895CF93DF93FC015C
:10296000C7EED4E0888199818E179F0710F4EC019F
:10297000F9CF2A813B81CE01820F931FE817F90717
:1029800039F482819381820F931F9B838A83FE0196
:1029900022813381A881B981CF01820F931FA817AB
:1029A000B907A1F48091FD009091FE00A817B90726
:1029B00069F012968D919C911397820F931F9383C8
:1029C00082838D919C919183808302C0B183A08387
:1029D000CE17DF0711F0F983E883DF91CF910895D7
:1029E000CF93DF93009751F1EC0124974A815B81EB
:1029F0002091FB003091FC00C90184239523892B91
:102A0000E9F088819981892BC9F420953095242398
:102A100035233B832A830E94791C8091F900909191
:102A2000FA002A813B81820F931F9093FA008093D2
:102A3000F900CE010E94AD140E94B71FDF91CF9123
:102A40000895CF92DF92EF92FF920F931F93CF934F
:102A5000DF93EC010E94791C8091FD009091FE00B3
:102A6000892B81F58FEF90E09093E8048093E70441
:102A70001092EA041092E90423EE34E03093FE0051
:102A80002093FD001092E6041092E5041092E404F5
:102A90001092E30484EE93E090930201809301018D
:102AA000309300012093FF009093F8008093F7008B
:102AB0009093FA008093F90080E090E89093FC00F6
:102AC0008093FB00C090FB00D090FC00CE018C21D5
:102AD0009D21892B09F05EC0209709F45BC0AE01EF
:102AE0004C5F5F4F09F456C0E090F900F090FA0097
:102AF000E416F50608F44EC0C091E704D091E8044E
:102B0000E7EEF4E08A819B818417950740F4888181
:102B100099819E01009719F0EC01F901F3CF8091A2
:102B2000FD009091FE00C817D907A1F10081118125
:102B300088819981918380838A819B81841B950BF5
:102B40008930910550F0FE01E40FF51F93838283D5
:102B50005B834A83CF010E94AD144A815B81970158
:102B6000241B350B3093FA002093F9008091F70075
:102B70009091F8002817390720F43093F80020933B
:102B8000F7000C5F1F4F4C295D295B834A83198234
:102B9000188202C000E010E00E94B71FC801DF9158
:102BA000CF911F910F91FF90EF90DF90CF900895FC
:102BB000FC019C012D5F3F4F328321838FEF9FEFFC
:102BC00094838383368325833087278310820895F7
:102BD000FC01118610860895AC01FC01A181B2812F
:102BE000FB01B383A28314968D919C9115979583D5
:102BF00084831496ED91FC911597738362831596E7
:102C00007C936E931497FB0151874087FA01808172
:102C10008F5F80830895CF93DF939C01EB01488100
:102C200059818FEF4F3F580721F4F901A781B085F3
:102C30000DC0D90113961296ED91FC9113978081E6
:102C400091814817590710F0DF01F5CF1296ED91E9
:102C5000FC911397FB83EA83D583C483BD83AC8344
:102C60001396DC93CE93129739872887F9018081D8
:102C70008F5F8083DF91CF910895CF93DF93DC0145
:102C80001896CD91DC91199712964D915C911397FE
:102C900014968D919C911597FA01958384831496CF
:102CA0002D913C911597F9015383428389819A8133
:102CB0008A179B0711F43A83298319961C921E9256
:102CC0001897888181508883DF91CF9108950E9461
:102CD0005C100E941C1C0E94A40D82E067E041E091
:102CE0000E94F50D0E9470028F3F39F40E94DD0CA6
:102CF0000E948408882341F40CC00E947002813035
:102D000041F40E944508FDCF0E94FA000E94450848
:102D1000FDCFFFCFFC0191E1908322E2229383E378
:102D2000829362937293129280E88293129282E06D
:102D3000829383E0829384E0829385E0829386E0AD
:102D4000829387E0829388E0829389E0829380E196
:102D50008293929382E1829383E1829384E18293CE
:102D600085E1829386E1829387E1829388E1829371
:102D700089E1829380E2829381E28293229383E2CB
:102D800082934293529386E2829387E2829388E20F
:102D9000829389E2829380E3829381E382933197E5
:102DA000CF0108951BBC8CE78ABD8BE08EBD89B72F
:102DB000806189BFA091EB04B091EC04CD91CDBFAF
:102DC000DD91DEBFFF91EF91DF91CF91BF91AF9188
:102DD0009F918F917F916F915F914F913F912F9133
:102DE0001F910F91FF90EF90DF90CF90BF90AF9029
:102DF0009F908F907F906F905F904F903F902F901B
:102E00001F900F900FBE0F90089581E008950895D0
:102E10000F920FB6F8940F921F9211242F923F92A7
:102E20004F925F926F927F928F929F92AF92BF92DA
:102E3000CF92DF92EF92FF920F931F932F933F93C6
:102E40004F935F936F937F938F939F93AF93BF93B2
:102E5000CF93DF93EF93FF93A091EB04B091EC0439
:102E60000DB60D920EB60D920E94831E882311F0AE
:102E70000E94931CA091EB04B091EC04CD91CDBFC6
:102E8000DD91DEBFFF91EF91DF91CF91BF91AF91C7
:102E90009F918F917F916F915F914F913F912F9172
:102EA0001F910F91FF90EF90DF90CF90BF90AF9068
:102EB0009F908F907F906F905F904F903F902F905A
:102EC0001F900F900FBE0F9008950E94081718953D
:102ED0000F920FB6F8940F921F9211242F923F92E7
:102EE0004F925F926F927F928F929F92AF92BF921A
:102EF000CF92DF92EF92FF920F931F932F933F9306
:102F00004F935F936F937F938F939F93AF93BF93F1
:102F1000CF93DF93EF93FF93A091EB04B091EC0478
:102F20000DB60D920EB60D920E94931CA091EB046B
:102F3000B091EC04CD91CDBFDD91DEBFFF91EF915B
:102F4000DF91CF91BF91AF919F918F917F916F91C1
:102F50005F914F913F912F911F910F91FF90EF90B3
:102F6000DF90CF90BF90AF909F908F907F906F90A9
:102F70005F904F903F902F901F900F900FBE0F903B
:102F800008950FB6F8940F92FC01828D0F900FBE3A
:102F90000895FC010FB6F8940F92928D0F900FBE1A
:102FA000838D891B0895FC01828D0895FC01828D1B
:102FB00090E0882309F491E0892F0895FC01928D17
:102FC00020E0838D981709F421E0822F08950E9454
:102FD000F0140895FC01562FA72F248D2223B9F059
:102FE00086819781820F911D978386832281338109
:102FF0008217930720F08081918197838683448D87
:1030000066817781852F9A2F50E00E94C72408950A
:103010000F931F93CF93DF93EC018A8D882341F0A8
:103020000E811F81CE010E94EA171F830E8381E06B
:10303000DF91CF911F910F9108951F93CF93DF934D
:10304000EC01142F4C8D4423E1F11123B1F48C8158
:103050009D8150E00E94C7248C8D2C813D81280FDA
:10306000311D3D832C838A819B812817390748F1C4
:10307000888199819D838C8324C08E819F8150E0BB
:103080000E94C7248C8D90E044275527481B590B7C
:103090008E819F81840F951F9F838E832881398124
:1030A0008217930730F48A819B81840F951F9F8339
:1030B0008E83123031F48A8D882319F08A8D8150E5
:1030C0008A8F8A8D8F5F8A8F80E0DF91CF911F91E9
:1030D00008950F931F93CF93DF938A01EC018A8D9C
:1030E0008823E9F0CE010E94EA178A8D81508A8FE9
:1030F0008D8D8F3F81F48885882381F0CE010896DD
:103100000E94431E882351F00115110539F081E01A
:10311000F801808304C08D8D8F5F8D8F81E0DF91FA
:10312000CF911F910F910895CF93DF93EB01FC0195
:10313000928D838D981710F080E018C0828D8F5F7C
:10314000828F868D8F3F71F48189882371F0CF0142
:1031500041960E94431E882341F0209731F081E080
:10316000888304C0868D8F5F868F81E0DF91CF9149
:1031700008950F931F93CF93DF938A01EC019A8DEB
:103180008B8D981720F0223011F080E01BC0CE010B
:10319000422F0E941D188E8D8F3F81F489898823CC
:1031A00081F0CE0141960E94431E882351F0011503
:1031B000110539F081E0F801808304C08E8D8F5FA6
:1031C0008E8F81E0DF91CF911F910F9108950F9322
:1031D0001F93CF93DF93EC010FB6F8940F928C01FD
:1031E0000F5E1F4F0DC08989882369F0C8010E94B6
:1031F000431E882311F00E941A1D8E8D81508E8FE0
:103200008E8D181684F38FEF8E8F0F900FBE0FB632
:10321000F8940F928E01085F1F4F0DC08885882398
:1032200069F0C8010E94431E882311F00E941A1DF4
:103230008D8D81508D8F8D8D181684F38FEF8D8F2E
:103240000F900FBEDF91CF911F910F9108957F9244
:103250008F929F92AF92BF92CF92DF92EF92FF92A6
:103260000F931F93DF93CF9300D000D00F92CDB771
:10327000DEB75B015D834C83722E8C0191E1C92E18
:10328000D12CC00ED11E20E07E010894E11CF11C5F
:1032900084E0882E912C8C0E9D1E01C021E00FB67B
:1032A000F8940F92F801828D882339F1E680F78037
:1032B000C801B5010E94EA17772071F4F801828DE8
:1032C0008150828F80858823A1F0C80108960E94D2
:1032D000431E813071F40BC0F801F782E6828189C8
:1032E000882339F0C6010E94431E882311F00E94F2
:1032F00068170F900FBE81E04AC08C819D81892B99
:1033000019F40F900FBE42C0222319F4C7010E9486
:10331000DC1C0F900FBE0E94791C0FB6F8940F9220
:10332000F801858D8F3F09F4158EF801868D8F3F4A
:1033300009F4168E0F900FBEC701B4010E94E71C5E
:103340008823F9F40FB6F8940F92F801828D0F904C
:103350000FBE882381F46C817D81C6010E94BE224C
:10336000C8010E94E7180E94B71F882309F096CF72
:103370000E94681793CFC8010E94E7180E94B71FE8
:103380008DCFC8010E94E7180E94B71F80E00F9000
:103390000F900F900F900F90CF91DF911F910F9191
:1033A000FF90EF90DF90CF90BF90AF909F908F9065
:1033B0007F9008956F927F929F92AF92BF92CF922B
:1033C000DF92EF92FF920F931F93DF93CF9300D082
:1033D00000D00F92CDB7DEB76B015D834C83922E88
:1033E0008C0148E0E42EF12CE80EF91E20E05E018D
:1033F0000894A11CB11C34E0632E712C6C0E7D1E50
:1034000001C021E00FB6F8940F92F801928D838DE0
:10341000981718F0F2E09F16C9F4C801B601492DBB
:103420000E941D18982FF8018189882339F0C8015E
:1034300041960E94431E813029F402C0992311F065
:103440000E9468170F900FBE81E04CC08C819D8157
:10345000892B19F40F900FBE44C0222319F4C50123
:103460000E94DC1C0F900FBE0E94791C0FB6F894CE
:103470000F92F801858D8F3F09F4158EF801868D26
:103480008F3F09F4168E0F900FBEC501B3010E9445
:10349000E71C882309F50FB6F8940F92F801928D76
:1034A0000F900FBEF801838D981781F46C817D8198
:1034B000C7010E94BE22C8010E94E7180E94B71FE0
:1034C000882309F09ECF0E9468179BCFC8010E94F5
:1034D000E7180E94B71F95CFC8010E94E7180E9405
:1034E000B71F80E00F900F900F900F900F90CF912B
:1034F000DF911F910F91FF90EF90DF90CF90BF90E1
:10350000AF909F907F906F900895CF93DF93EC01E1
:103510000FB6F8940F92EC8D2B8DE29FC001112411
:1035200048815981840F951F9B838A831A8E5D83FE
:103530004C8330E021503040F0E02E9FC0012F9F9F
:10354000900D3E9F900D1124480F591F5F834E83AD
:103550008FEF8D8F8E8F662361F48885882389F0A5
:10356000CE0108960E94431E813059F40E946817CC
:1035700008C0CE0108960E94D815CE0141960E943F
:10358000D8150F900FBE81E0DF91CF9108950F9372
:103590001F93CF93DF93082F162F662319F480E033
:1035A00090E004C0689FC001112401964F960E94CC
:1035B0002115EC01009719F420E030E00FC0112331
:1035C00019F49983888303C04F96998388830B8F5E
:1035D0001C8FCE0161E00E94851A9E01C901DF9116
:1035E000CF911F910F910895AF92BF92CF92DF922A
:1035F000EF92FF920F931F93CF93DF93EC015A0149
:103600006B010E945C108AE70E945F1080E490E0EA
:103610000E949B10EE24FF2487010CC0FE01EE0DDA
:10362000FF1D808190E00E949B100894E11CF11C1A
:10363000011D111DEA14FB040C051D0578F30E9401
:10364000BB10DF91CF911F910F91FF90EF90DF9012
:10365000CF90BF90AF9008951F93182F0E945C10D9
:103660008AE70E945F1080E090E00E949B10812F0B
:1036700090E00E949B100E94BB101F9108950F9331
:103680001F93182F062F82E20E942C1B812F877018
:103690000E942C1B802F87700E942C1B1F910F9162
:1036A00008950F931F93182F062F81E20E942C1B61
:1036B000812F0E942C1B802F0E942C1B1F910F9189
:1036C00008951F93182F80E00E942C1B812F0E94C9
:1036D0002C1B1F9108958770806B0E942C1B0895EE
:1036E000EF92FF920F931F93DF93CF93CDB7DEB787
:1036F000C058D0400FB6F894DEBF0FBECDBF8E01CC
:103700000F5F1F4F80E8F80111928A95E9F782E078
:103710000E94611BFF24E02E012F8F2D0E946B1B46
:103720008E2D902F40E850E060E070E00E94F41A87
:10373000F394F8E0FF1689F7C058DF4F0FB6F894FE
:10374000DEBF0FBECDBFCF91DF911F910F91FF90D4
:10375000EF900895846A0E942C1B08958E620E9447
:103760002C1B0895866A0E942C1B08951F93182F06
:103770008DE80E942C1B110F110F812F80610E9478
:103780002C1B1F9108951F93182F88EA0E942C1B51
:10379000812F8F730E942C1B1F9108950F931F93ED
:1037A000082F162F85ED0E942C1B1295107F0F708D
:1037B000812F802B0E942C1B1F910F9108951F9326
:1037C000182F81E80E942C1B812F0E942C1B1F9117
:1037D00008950F931F93182F062F8AED0E942C1B1C
:1037E0001295107F12600295000F007E802F812BB2
:1037F0000E942C1B1F910F910895880F880F880F2E
:10380000806C0E942C1B0895806A0E942C1B0895D6
:103810008F7380640E942C1B08951F93182F83EDD3
:103820000E942C1B812F8F730E942C1B1F910895C7
:103830008E6A0E942C1B089580E00E94181C80E074
:103840000E940D1C80E00E94081C81E00E94041C64
:1038500080E00E94FD1B81E060E00E94E91B8FE791
:103860000E94DF1B80E068E00E94CE1B8FE30E9475
:10387000C31B81E00E94B61B80E00E94B21B80E067
:103880000E94AE1B81E00E94181C80E00E94AA1BCF
:103890000E94701B08950F931F93CF93DF93EC0149
:1038A000162F80E06FE70E94511B812F67E00E9476
:1038B0003F1B0E945C108AE70E945F1080E490E04A
:1038C0000E949B10179511271795012F015808C0CA
:1038D000FE01E10FF11D808190E00E949B101F5FAF
:1038E0000117B0F70E94BB10DF91CF911F910F918C
:1038F00008958091ED048F5F8093ED0408950FB6D5
:10390000F8940F922091EF043091F0040F900FBEC5
:10391000C90108952091EF043091F004C901089580
:103920008091F60408958091ED04882321F081E0D0
:103930008093F30408951092F30405C08091EE047F
:1039400081508093EE048091EE0490E0FC0123E02E
:10395000EE0FFF1F2A95E1F7E80FF91FE650FB4F26
:103960008081882359F39091EE0489E0989FD001DB
:103970001124A650BB4F1196ED91FC911297028035
:10398000F381E02D1296FC93EE931197CD010396EF
:10399000E817F90731F48281938112969C938E93F4
:1039A00011971196ED91FC911297868197819093D2
:1039B000EC048093EB040895FC018091F40480836F
:1039C0008091EF049091F004928381830895FC012B
:1039D000DB010FB6F8940F924091EF045091F00480
:1039E0009091F4048081981729F081819281481781
:1039F0005907E0F4218132816D917C911197CA01C0
:103A0000821B930B8617970788F4241B350B260F10
:103A1000371F2D933C938091F40480838091EF04B1
:103A20009091F0049283818380E001C081E00F9047
:103A30000FBE089581E08093F3040895E091EB04B4
:103A4000F091EC0484859585A091EB04B091EC0491
:103A5000E091EB04F091EC04468924E030E0241B73
:103A600031091D963C932E931C970895FC010097F5
:103A700021F4E091EB04F091EC040FB6F8940F926E
:103A800085A1823011F080E002C015A281E00F9084
:103A90000FBE0895EF92FF920F931F93CF93DF9382
:103AA0007B01EC012DA182E08DA389A19AA1ABA19C
:103AB000BCA10196A11DB11D89A39AA3ABA3BCA370
:103AC000213071F58091ED048823A9F48E010E5FF9
:103AD0001F4FC8010E943D169E898091EE048917F0
:103AE00010F49093EE0489E0989FC0011124865051
:103AF0009B4FB80105C0BE01645F7F4F84E395E032
:103B00000E94EC15E091EB04F091EC049E8986890B
:103B1000891730F4E114F10419F081E0F701808392
:103B2000DF91CF911F910F91FF90EF900895EF9249
:103B3000FF920F931F93CF93DF93F801EC010115D0
:103B4000110541F089A19AA1ABA1BCA18083918309
:103B5000A283B3833DA182E08DA3223099F023306C
:103B600018F4213019F505C02330E1F02430F1F4C8
:103B700015C089A19AA1ABA1BCA1842B952BA62B22
:103B8000B72B07C089A19AA1ABA1BCA10196A11D29
:103B9000B11D89A39AA3ABA3BCA308C0323011F412
:103BA00080E036C049A35AA36BA37CA3313079F5DA
:103BB0008091ED048823A9F48E010E5F1F4FC80188
:103BC0000E943D169E898091EE04891710F490930F
:103BD000EE0489E0989FC001112486509B4FB801E4
:103BE00005C0BE01645F7F4F84E395E00E94EC1541
:103BF000E091EB04F091EC049E898689891738F4F2
:103C0000E114F10421F081E0F701808301C081E03B
:103C1000DF91CF911F910F91FF90EF9008950F9337
:103C20001F93CF93DF93FC01706871836083C6811B
:103C3000D7810E943D168E010E5F1F4FC8010E9462
:103C40003D169E898091EE04891710F49093EE043E
:103C500089E0989FC001112486509B4FB8010E94B3
:103C6000EC15E091EB04F091EC049E8986898917AC
:103C700010F080E003C081E08093F304DF91CF91E6
:103C80001F910F9108950F931F93CF93DF93DC0142
:103C90001596ED91FC911697C681D7818E01045F30
:103CA0001F4FC8010E943D168091ED048823A1F4A6
:103CB0008E010E5F1F4FC8010E943D169E898091A4
:103CC000EE04891710F49093EE0489E0989FC001E8
:103CD000112486509B4F02C084E395E0B8010E94F6
:103CE000EC15E091EB04F091EC049E89868989172C
:103CF00010F080E003C081E08093F304DF91CF9166
:103D00001F910F910895CF92DF92EF92FF920F9340
:103D10001F93CF93DF938091ED04882309F0A7C010
:103D20008091EF049091F00401969093F0048093B9
:103D3000EF04E090EF04F090F004E114F10479F561
:103D400020913005309131058091320590913305F5
:103D500090933105809330053093330520933205DD
:103D60008091F4048F5F8093F404E0913005F0912A
:103D700031058081882319F48FEF9FEF0CC0E0910B
:103D80003005F09131050580F681E02D0680F78140
:103D9000E02D828193819093F2048093F1048091CD
:103DA000F1049091F204E816F90608F449C0DD2404
:103DB00049E0C42EE0913005F091310580818823DF
:103DC00019F48FEF9FEF0EC0E0913005F0913105AF
:103DD0000580F681E02DC681D7818A819B81E81616
:103DE000F90628F49093F2048093F1042AC08E011E
:103DF0000E5F1F4FC8010E943D168C899D89892B3B
:103E000021F0CE010C960E943D169E898091EE0411
:103E1000891710F49093EE049C9DC00111248650E4
:103E20009B4FB8010E94EC15E091EB04F091EC047B
:103E30009E898689981708F4BDCFDD24D394BACF24
:103E4000DD24E091EB04F091EC04868990E0FC0124
:103E500033E0EE0FFF1F3A95E1F7E80FF91FE65048
:103E6000FB4F8081823048F0DD24D39406C08091DE
:103E7000F5048F5F8093F504DD248091F30488239B
:103E800011F0DD24D3948D2DDF91CF911F910F91EF
:103E9000FF90EF90DF90CF9008950F931F93CF93F3
:103EA000DF93F801EC010FB6F8940F92011511059C
:103EB00041F089A19AA1ABA1BCA180839183A28387
:103EC000B3833DA182E08DA3223099F0233018F412
:103ED000213019F505C02330E1F02430F1F415C08C
:103EE00089A19AA1ABA1BCA1842B952BA62BB72BA2
:103EF00007C089A19AA1ABA1BCA10196A11DB11DCA
:103F000089A39AA3ABA3BCA308C0323011F480E00C
:103F100027C049A35AA36BA37CA3313001F58E01BE
:103F20000E5F1F4FC8010E943D169E898091EE04CE
:103F3000891710F49093EE0489E0989FC001112432
:103F400086509B4FB8010E94EC15E091EB04F09174
:103F5000EC049E898689891710F40E94681781E015
:103F60000F900FBEDF91CF911F910F910895EF92A7
:103F7000FF920F931F93CF93DF930FB6F8940F9296
:103F80008091ED0481508093ED048091ED048823AD
:103F900009F055C08091F604882359F550C0E0918E
:103FA0003905F0913A05C681D781CE010C960E9461
:103FB0003D168E010E5F1F4FC8010E943D169E895F
:103FC0008091EE04891710F49093EE049E9DC00139
:103FD000112486509B4FB8010E94EC15E091EB0430
:103FE000F091EC049E898689981738F0F092F304DA
:103FF00004C059E0E52EFF24F39480913405882312
:1040000071F68091F504882369F411C00E94831E23
:10401000882311F01093F3048091F504815080936C
:10402000F50401C011E08091F504882379F78091AF
:10403000F304813021F40E94681781E001C080E020
:104040000F900FBEDF91CF911F910F91FF90EF90D6
:104050000895EF92FF920F931F93DF93CF930F92E8
:10406000CDB7DEB7643008F063E00FB6F8940F9276
:10407000009729F4E090EB04F090EC0401C07C017F
:10408000D70156962C91261709F45BC02617A0F489
:104090008091EB049091EC04E816F90611F4198272
:1040A00015C0E091EB04F091EC0419828689681741
:1040B00068F0B1E0B9830AC08091EB049091EC0400
:1040C0001982E816F90611F4E1E0E983D701569662
:1040D0006C9356971C968D919C911D9797FD08C0E7
:1040E00084E090E0861B91091D969C938E931C970B
:1040F00089E0289FC001112486509B4FF70122853B
:10410000338528173907C1F487010E5F1F4FC80197
:104110000E943D16D70156969C918091EE04891716
:1041200010F49093EE0489E0989FC001112486500A
:104130009B4FB8010E94EC15B981B13011F40E9477
:1041400068170F900FBE0F90CF91DF911F910F91C5
:10415000FF90EF9008950F931F93CF93DF930FB6C7
:10416000F8940F92009729F4C091EB04D091EC04DD
:1041700001C0EC018E010E5F1F4FC8010E943D1669
:104180008C899D89892B21F0CE010C960E943D16C9
:104190008DE395E0B8010E94EC158091F8048F5FE3
:1041A0008093F8048091F9048F5F8093F9040F9055
:1041B0000FBE8091F704882349F18091EB04909120
:1041C000EC04C817D90719F40E9468171FC00FB66E
:1041D000F8940F92E0913005F091310580818823A9
:1041E00019F48FEF9FEF0CC0E0913005F09131058D
:1041F0000580F681E02D0680F781E02D8281938194
:104200009093F2048093F1040F900FBEDF91CF9151
:104210001F910F910895CF93DF93EC01E091EB0490
:10422000F091EC04938382838091EF049091F004E9
:10423000C817D90768F480913205909133056091D1
:10424000EB047091EC046E5F7F4F0E940B1617C059
:1042500080913005909131056091EB047091EC04F0
:104260006E5F7F4F0E940B168091F1049091F204D3
:10427000C817D90720F4D093F204C093F104DF915A
:10428000CF9108956F927F928F929F92AF92BF923B
:10429000CF92DF92EF92FF920F931F93CF93DF9312
:1042A0005B016C0139014A01E8010FB6F8940F92E5
:1042B000E091EB04F091EC0485A1823071F1E09182
:1042C000EB04F091EC0481A192A1A3A1B4A1A0946C
:1042D000B094C094D0948A219B21AC21BD2181A3AC
:1042E00092A3A3A3B4A3E091EB04F091EC0481E0CA
:1042F00085A3E114F10489F08091EB049091EC0422
:1043000002960E943D168091EF049091F0048E0D6C
:104310009F1D0E940B210E9468170F900FBE0FB6C1
:10432000F8940F92209761F0E091EB04F091EC0487
:1043300081A192A1A3A1B4A188839983AA83BB83FD
:10434000E091EB04F091EC0485A1813011F480E060
:1043500015C0E091EB04F091EC0481A192A1A3A11E
:10436000B4A1609470948094909486219721A821A0
:10437000B92181A392A3A3A3B4A381E0E091EB04AC
:10438000F091EC0415A20F900FBEDF91CF911F9119
:104390000F91FF90EF90DF90CF90BF90AF909F90E4
:1043A0008F907F906F9008951F93CF93DF93182F76
:1043B000EB010FB6F8940F92E091EB04F091EC044E
:1043C00081A192A1A3A1B4A10097A105B105D1F447
:1043D000E091EB04F091EC0481E085A36115710597
:1043E00089F08091EB049091EC0402960E943D16B6
:1043F0008091EF049091F0048C0F9D1F0E940B217F
:104400000E9468170F900FBE0FB6F8940F92E091BC
:10441000EB04F091EC0421A132A143A154A1211598
:10442000310541055105D1F0112349F0E091EB042C
:10443000F091EC0411A212A213A214A20FC0E091F9
:10444000EB04F091EC0481A192A1A3A1B4A1019786
:10445000A109B10981A392A3A3A3B4A3E091EB04A2
:10446000F091EC0415A20F900FBEB901CA01DF91C3
:10447000CF911F9108950F931F938A01E091EB0450
:10448000F091EC047068758764876091EB0470911B
:10449000EC04645F7F4F0E94EC158091EB049091D7
:1044A000EC0402960E943D168091EF049091F00476
:1044B000800F911F0E940B211F910F9108950F9360
:1044C0001F93CF93DF93EC010097C9F08091ED0427
:1044D0008F5F8093ED040091EF041091F0048091C0
:1044E000EB049091EC0402960E943D16CE01800FE1
:1044F000911F0E940B210E94B71F882311F40E9474
:104500006817DF91CF911F910F910895CF93DF939B
:10451000FC01EB018091ED048F5F8093ED0420910D
:10452000EF043091F00480819181C80FD91F2817C2
:10453000390728F4C817D90728F080E008C0C81741
:10454000D90720F080E02C173D0708F481E0D183E3
:10455000C083882351F08091EB049091EC04029683
:104560000E943D16CE010E940B210E94B71F882396
:1045700011F40E946817DF91CF9108950F931F9354
:104580008B016091EB047091EC04645F7F4F0E949B
:104590000B168091EB049091EC0402960E943D165C
:1045A0008091EF049091F004800F911F0E940B21E5
:1045B0001F910F910895F8941092F7040E94071725
:1045C00008950F931F932CC08091ED048F5F80930B
:1045D000ED0410913D050E94B71F112309F10FB69C
:1045E000F8940F92E0914205F091430506811781FE
:1045F000C80102960E943D168091F6048150809376
:10460000F6048091F80481508093F8040F900FBE57
:10461000F8018789908D0E94F014C8010E94F0145F
:104620008091F804882381F68091FA048230C0F3E7
:104630000E946817F5CF2F923F924F925F927F9220
:104640008F929F92AF92BF92CF92DF92EF92FF92A2
:104650000F931F93CF93DF931C01962E872E5A0141
:104660002901702EC114D10431F4CA010E94211510
:104670006C01009799F086E290E00E942115EC0110
:10468000009749F0D88ECF8A892D982D9C01F90189
:10469000DE0190E005C0C6010E94F0148FEFB7C0A4
:1046A000808159968C9359978081882329F09F5F48
:1046B000319611969830A1F718A2072D83E087153F
:1046C00008F403E00E8B72E0872E912C8C0E9D1E59
:1046D000C4010E94E815CE010C960E94E815D98706
:1046E000C88784E090E0801B91099D878C87DB8BD5
:1046F000CA8B19A21AA21BA21CA21DA20894A1086F
:10470000B108C6018A0D9B1DB101A2010E948A1643
:1047100099838883E114F10419F0F701D183C083F0
:104720000FB6F8940F928091F6048F5F8093F60491
:104730008091EB049091EC04892BA9F5D093EC04C3
:10474000C093EB048091F6048130E1F58AEF94E0A8
:104750000E94D81583E095E00E94D8158CE095E082
:104760000E94D81585E195E00E94D8156EE1E62EED
:1047700065E0F62EC7010E94D81507E215E0C801D2
:104780000E94D81584E395E00E94D8158DE395E04A
:104790000E94D815F0923105E09230051093330550
:1047A000009332050FC08091F704882359F4E091FB
:1047B000EB04F091EC048689781620F0D093EC0499
:1047C000C093EB048091F9048F5F8093F9049E8974
:1047D0008091EE04891710F49093EE0489E0989F7D
:1047E000C001112486509B4FB4010E94EC150F901C
:1047F0000FBE8091F704882349F0E091EB04F0911B
:10480000EC048689871510F40E94681781E0DF9117
:10481000CF911F910F91FF90EF90DF90CF90BF90BD
:10482000AF909F908F907F905F904F903F902F9090
:104830000895AF92BF92CF92DF92EF92FF920F93C3
:1048400081EE92E266E670E044E650E020E030E07F
:1048500000E0EE24FF24CC24DD24AA24BB240E9403
:104860001B23813081F4F8948FEF9FEF9093F20433
:104870008093F10481E08093F7041092F004109289
:10488000EF040E94D2160F91FF90EF90DF90CF902F
:10489000BF90AF900895629FD001739FF001829FF7
:1048A000E00DF11D649FE00DF11D929FF00D839FBF
:1048B000F00D749FF00D659FF00D9927729FB00D5C
:1048C000E11DF91F639FB00DE11DF91FBD01CF016F
:1048D00011240895991B79E004C0991F961708F0D8
:1048E000961B881F7A95C9F780950895AA1BBB1B54
:1048F00051E107C0AA1FBB1FA617B70710F0A61BE0
:10490000B70B881F991F5A95A9F780959095BC0100
:10491000CD010895A1E21A2EAA1BBB1BFD010DC0FB
:10492000AA1FBB1FEE1FFF1FA217B307E407F5075F
:1049300020F0A21BB30BE40BF50B661F771F881F3B
:10494000991F1A9469F760957095809590959B01D1
:10495000AC01BD01CF01089597FB092E05260ED0AD
:1049600057FD04D0D7DF0AD0001C38F4509540958D
:10497000309521953F4F4F4F5F4F0895F6F7909533
:104980008095709561957F4F8F4F9F4F0895FB01E4
:10499000DC0102C001900D9241505040D8F70895BB
:1049A000E199FECF9FBB8EBBE09A99278DB3089506
:0449B000F894FFCFA9
:1049B40041686D65640049444C45001200131214AB
:1049C4000D0C0E0D1314041604031307140511081B
:1049D40000000030000000000000C00000000001E2
:1049E40001010101000000000000000000050301B6
:1049F4000101070809000405060001020300000084
:104A0400000000010101010100000000000000009D
:104A140000030914121313080C04040D13041118D1
:084A24000E14110D000C04003A
:00000001FF
