:100000000C942A000C9447000C9447000C94470071
:100010000C9447000C9447000C9447000C94470044
:100020000C9447000C9447000C9447000C94470034
:100030000C9447000C9447000C9447000C94470024
:100040000C9447000C9447000C9447000C94470014
:100050000C94470011241FBECFE5D8E0DEBFCDBF12
:1000600010E0A0E6B0E0E2E0F0E302C005900D92FF
:10007000A23DB107D9F710E0A2EDB0E001C01D929A
:10008000A13FB107E1F70E94C0150C94FF170C9433
:1000900000008330B9F0843028F4813071F0823070
:1000A00078F409C08530A1F0853080F0863099F071
:1000B0008730B1F412C0389801C0389A399804C01A
:1000C000389801C0389A399A3A980AC0389801C0CD
:1000D000389A399804C0389801C0389A399A3A9AAF
:1000E0003E9A3F983098319A329A359A3D98379A8D
:1000F0000895369A349BFECF24B135B1C9010895D5
:100100009C016AE070E00E949317E82F40E0C9016B
:100110006AE070E00E949317CB016AE070E00E94F1
:1001200093179C0163E0880F991F6A95E1F7220FEE
:10013000331F820F931FE80FF0E0E370F070EF2B96
:1001400009F441E0842F0895482F6AE00E94871740
:10015000282F30E074E0220F331F7A95E1F7842FC7
:100160000E948717892F822B0895982F82958F7070
:100170002AE0829F802D11249F70890F08950E948C
:100180007A118AEA0E947D1188EF90E00E94B911ED
:1001900081E090E00E94B9110E94D91108950E9457
:1001A0007A118AEA0E947D1188EF90E00E94B911CD
:1001B0008FEF90E00E94B9110E94D91108951F930A
:1001C0000E947A118AEA0E947D1188EF90E00E94D5
:1001D000B9118BEA0E949B110E94D211182F0E9424
:1001E000D911812F1F9108958091D700882349F458
:1001F00082E067E041E00E94BC0F81E08093D7007D
:10020000089582E067E040E00E94BC0F1092D700A2
:1002100008951F93CF93DF9310E080E060E80E9481
:100220004016812F67E00E942E168AE70E947D11FA
:1002300080E490E00E94B911C0E0D0E080E090E05E
:100240000E94B9112196C038D105C1F70E94D91179
:100250001F5F183011F7DF91CF911F9108953F92E2
:100260004F925F926F927F928F929F92AF92BF92C6
:10027000CF92DF92EF92FF920F931F93DF93CF9372
:10028000CDB7DEB728970FB6F894DEBF0FBECDBF4F
:10029000E82FF0E0E956FF4F3080832D992787FD46
:1002A0009095A7E0CA2ED12CC81AD90AD694DC2C76
:1002B000CC24D794C7944601AA2497FCA094BA2CC6
:1002C0001A8219829C838B833A94232D30E03E83DB
:1002D0002D8333944CC080E06FE70E944016832D3D
:1002E0003981831B67E00E942E160E947A118AE7EB
:1002F0000E947D1180E490E00E94B911EFE74E2E3C
:10030000512C612C712C480C591C6A1C7B1C8501DA
:100310007401D886CF8213C08F8198850E94F71709
:1003200090E0809590950E94B9110894E11CF11C11
:10033000011D111D8F819885019698878F83E41484
:10034000F5040605170540F30E94D911A981BA8169
:100350001196BA83A983E0E8F0E0CE0EDF1E80E8B4
:1003600090E0A0E0B0E0880E991EAA1EBB1E8B8113
:100370009C81A981BA818A1B9B0BED81FE818E171E
:100380009F070CF0A8CF28960FB6F894DEBF0FBEDB
:10039000CDBFCF91DF911F910F91FF90EF90DF9034
:1003A000CF90BF90AF909F908F907F906F905F9015
:1003B0004F903F9008953F924F925F926F927F923D
:1003C0008F929F92AF92BF92CF92DF92EF92FF9265
:1003D0000F931F93DF93CF93CDB7DEB728970FB658
:1003E000F894DEBF0FBECDBFE82FF0E0E956FF4F17
:1003F0003080832D992787FD909507E0C02ED12C62
:10040000C81AD90AD694DC2CCC24D794C7944601B8
:10041000AA2497FCA094BA2C1A8219829C838B83FD
:100420003A94232D30E03E832D8333944AC080E0FC
:100430006FE70E944016832D3981831B67E00E947D
:100440002E160E947A118AE70E947D1180E490E0C6
:100450000E94B911BFE74B2E512C612C712C480C16
:10046000591C6A1C7B1C85017401D886CF8211C07F
:100470008F8198850E94F71790E00E94B911089427
:10048000E11CF11C011D111D8F8198850196988733
:100490008F83E414F5040605170550F30E94D91163
:1004A000A981BA811196BA83A983E0E8F0E0CE0E63
:1004B000DF1E80E890E0A0E0B0E0880E991EAA1E42
:1004C000BB1E8B819C81A981BA818A1B9B0BED810C
:1004D000FE818E179F070CF0AACF28960FB6F894CE
:1004E000DEBF0FBECDBFCF91DF911F910F91FF9067
:1004F000EF90DF90CF90BF90AF909F908F907F90C4
:100500006F905F904F903F900895BF92CF92DF928F
:10051000EF92FF920F931F93DF93CF93CDB7DEB788
:100520002E970FB6F894DEBF0FBECDBFB82EC62EE5
:10053000142F0E947A110EE07E010894E11CF11C38
:10054000F701802F11928A95E9F71830E0F488EAD4
:100550000E947D11109FC0011124845790E00E94D9
:10056000B91189EA0E949B1187015EE0E52EF12C0A
:10057000EC0EFD1E0E94CB11F80181938F01EE1548
:10058000FF05C1F754C0183099F588EA0E947D1123
:100590008CEF90E00E94B91189EA0E949B110E94A1
:1005A000CB1189830E94CB118A830E94CB118B834C
:1005B0000E94D2118C830E94D9118AEA0E947D1177
:1005C00080E090E00E94B9118BEA0E949B118E019D
:1005D0000B5F1F4F4EE0E42EF12CEC0EFD1E0E942F
:1005E000CB11F80181938F01EE15FF05C1F71FC0F4
:1005F000812F8950813100F58AEA0E947D11109F78
:10060000C0011124845790E00E94B9118BEA0E9426
:100610009B1187013EE0E32EF12CEC0EFD1E0E94A3
:10062000CB11F80181938F01EE15FF05C1F70E94F0
:10063000D2118E870E94D91127E0D22EDC0C8C2D8E
:100640006D2D0E9440168B2D67E00E942E168AE7C2
:100650000E947D1180E490E00E94B9118E010F5F2D
:100660001F4F98E0E92EF12CEC0EFD1EF801819150
:100670008F0190E00E94B9110E151F05B9F70E9475
:10068000D9118C2D6D2D0E9440168B2D815067E065
:100690000E942E168AE70E947D1180E490E00E945D
:1006A000B9118FE0E82EF12CEC0EFD1EF8018191BE
:1006B0008F0190E00E94B9110E151F05B9F70E9435
:1006C000D9112E960FB6F894DEBF0FBECDBFCF91D5
:1006D000DF911F910F91FF90EF90DF90CF90BF902F
:1006E00008951F93CF93DF93EB0193E0899FC0019F
:1006F0001124C80FD91F11E682E0612F49910E9491
:100700008502195F1637C1F7DF91CF911F910895C8
:100710005F926F927F928F929F92AF92BF92CF9291
:10072000DF92EF92FF920F931F93CF93DF93E7E057
:100730005E2EAA24BB24650180E06FE70E9440166C
:10074000852D67E00E942E160E947A118AE70E948A
:100750007D1180E490E00E94B9117FE7672E712C33
:10076000812C912C6A0C7B1C8C1C9D1C852D84502B
:10077000823020F0E5018601750124C0E501860183
:1007800075010EC0CE010E94F71790E080959095FC
:100790000E94B9110894E11CF11C011D111D219644
:1007A000E614F7040805190568F311C0CE010E948C
:1007B000F71790E00E94B9110894E11CF11C011D8B
:1007C000111D2196E614F7040805190578F30E9417
:1007D000D9115A9480E890E0A0E0B0E0A80EB91ECC
:1007E000CA1EDB1E9FEF591609F0A6CF8AEA0E94A7
:1007F0007D1189EF90E00E94B9118BEA0E949B1154
:1008000062EDE62E60E0F62EE7010E94CB1189939F
:10081000A0E0C63DDA07C9F70E94D21188830E9482
:10082000D91118E387E0612FF70141917F010E9400
:100830008502195F1B35B1F7DF91CF911F910F91A1
:10084000FF90EF90DF90CF90BF90AF909F908F90F0
:100850007F906F905F900895AF92BF92CF92DF929A
:10086000EF92FF920F931F93DF93CF93CDB7DEB735
:100870002E970FB6F894DEBF0FBECDBFA82EB62EB2
:10088000E42E0E947A111EE0F12E8E010F5F1F4FA1
:10089000F8018F2D11928A95E9F788EA0E947D115F
:1008A000EF9C802D112490E00E94B91189EA0E94EA
:1008B0009B117801BEE0CB2ED12CCC0EDD1E0E9408
:1008C000CB11F70181937F01EC15FD05C1F70E9463
:1008D000D2118E870E94D911A7E0DA2EDB0C8B2D66
:1008E0006D2D0E9440168A2D67E00E942E168AE721
:1008F0000E947D1180E490E00E94B911F8E0EF2E93
:10090000F12CEC0EFD1EF80181918F0190E00E9408
:10091000B9110E151F05B9F70E94D9118B2D6D2D38
:100920000E9440168A2D815067E00E942E168AE7A9
:100930000E947D1180E490E00E94B91178018E013F
:10094000015F1F4FF70181917F0190E00E94B91173
:10095000E016F106B9F70E94D9112E960FB6F89459
:10096000DEBF0FBECDBFCF91DF911F910F91FF90E2
:10097000EF90DF90CF90BF90AF900895EF92FF92ED
:100980000F931F93F82EE62E8A01262F225FCA01AD
:100990006AE070E00E949317482F8F2D622F0E940B
:1009A0002C04C8016AE070E00E949317162F072FED
:1009B0002E2D295F862F972F6AE070E00E949317F3
:1009C000482F8F2D622F0E942C04812F902F6AE0D8
:1009D00070E00E949317CB016AE070E00E949317C9
:1009E000482F8F2D6E2D0E942C041F910F91FF9088
:1009F000EF900895FF920F931F93082FF62E142F58
:100A0000262F295F842F6AE00E948717802F622F8C
:100A1000492F0E942C04812F6AE00E948717482FDB
:100A2000802F6F2D0E942C041F910F91FF9008952D
:100A3000DF92EF92FF920F931F93DF93CF930F926A
:100A4000CDB7DEB703E0DD24D3947E010894E11C2A
:100A5000F11CD98282E0602F40E00E94BC0F82E04E
:100A600062E0A7010E9444108981882339F010E0D8
:100A700009C082E062E0A7010E94441089818823B6
:100A8000C1F3102F82E0602F41E00E94BC0F1123C0
:100A900019F40F5F0730E9F6812F0F90CF91DF91A6
:100AA0001F910F91FF90EF90DF900895DF92EF92EA
:100AB000FF920F931F93DF93CF9300D0CDB7DEB794
:100AC0000E94090187E061E042E10E94850287E01F
:100AD00068E043E10E94850287E06FE044E10E9404
:100AE000850287E066E143E00E94850287E06DE1D0
:100AF00048E10E94850287E064E248E00E948502A6
:100B000087E06BE24DE00E94850287E062E346E009
:100B10000E94850287E060E44CE00E94850287E045
:100B200067E448E00E94850287E06EE44DE00E94A1
:100B3000850287E065E542E10E94850284E060E38A
:100B400040E00E942C0484E067E340E00E942C0413
:100B500084E065E44CE00E94850284E06CE448E0B7
:100B60000E94850284E063E54DE00E94850280E3F7
:100B70006EE30E94401682E067E00E942E168AE72C
:100B80000E947D1180E490E00E94B91100E080ECA9
:100B900090E00E94B9110F5F0E30C9F70E94D91181
:100BA00081E062E342E10E94850281E069E34BE07B
:100BB0000E94850281E060E44EE00E94850281E0AF
:100BC00067E443E10E94850281E065E541E00E941F
:100BD0002C0410E00E941805833059F4112339F4D5
:100BE00084E060E343E60E94FA0413E6F3CF115079
:100BF0000AC0843071F4133629F460E340E00E94A7
:100C0000FA04E7CF1F5F84E060E3412F0E94FA04FB
:100C1000E1CF8530F9F6E12E80E36EE30E944016C5
:100C200082E067E00E942E168AE70E947D1180E430
:100C300090E00E94B91100E080E090E00E94B911BC
:100C40000F5F0E30C9F70E94D911DD24D3940E94A2
:100C50001805833061F481E0D81639F465E543E086
:100C60000E942C0483E0D82EF2CFDA940CC084309A
:100C700081F493E0D91631F481E065E541E00E940A
:100C80002C04E3CFD39481E065E54D2D0E942C0424
:100C9000DECF8530E1F60E94090187E061E04AE09D
:100CA0000E94850287E068E044E00E94850287E0B8
:100CB0006FE044E00E94850287E066E14FE00E9419
:100CC000850287E064E246E00E94850287E06BE2ED
:100CD0004EE00E94850287E062E348E00E948502C0
:100CE00087E069E34DE00E94850287E060E446E02A
:100CF0000E94850284E060E3412F0E94FA0484E0B0
:100D000065E44CE00E94850284E06CE448E00E94C7
:100D1000850284E063E54DE00E94850280E36EE396
:100D20000E94401682E067E00E942E168AE70E9429
:100D30007D1180E490E00E94B91100E080EC90E029
:100D40000E94B9110F5F0E30C9F70E94D91108C077
:100D50000E94B214115084E060E3412F0E94FA0413
:100D60001123B1F7E1E0DE1619F40EEFD02E05C025
:100D7000F2E0DF1629F4DD24DA940BEA1AEA0AC05D
:100D800083E0D81621F4DD240DEA1CEA03C0DD243B
:100D900000E010E00E947A11812F0E947D118D2DBC
:100DA00090E00E94B911802F0E949B110E94D211E5
:100DB000082F0E94D911E02FF0E0FA83E983FF2485
:100DC0000E947A11812F0E947D118D2D90E00E944A
:100DD000B91189819A81807E90708E0D9F1D6CE380
:100DE00070E00E94A717262F89819A818F719070D9
:100DF0009A8389838E0D9F1D6CE370E00E94A71774
:100E0000822B90E00E94B9110E94D91181E00F90CD
:100E10000F90CF91DF911F910F91FF90EF90DF9096
:100E200008952F923F924F925F926F927F928F928E
:100E30009F92AF92BF92CF92DF92EF92FF920F9369
:100E40001F93DF93CF93CDB7DEB729970FB6F894F2
:100E5000DEBF0FBECDBF0E9409014C802A80BB803F
:100E600080E0BE016F5F7F4F0E94431583E0BE01AB
:100E70006B5F7F4F0E941B158B81482F4F714B83F7
:100E800042954F709AE0499F402D11248F70480F72
:100E900085E069E20E94FA0487E360E80E94401658
:100EA00085E067E00E942E168AE70E947D1180E4AB
:100EB00090E00E94B9110BE710E0F80181918F01D9
:100EC00090E00E94B911F0E002381F07B1F70E94CC
:100ED000D91187E360E80E94401684E067E00E9431
:100EE0002E168AE70E947D1180E490E00E94B911DD
:100EF000F80181918F0190E00E94B911F0E009386A
:100F00001F07B1F70E94D9118A81482F42954F706F
:100F10009AE0499F402D11248F70480F85E06EE3C1
:100F20000E94FA048C81882321F085E06CE44FE074
:100F300003C085E06CE440E00E94850285E063E543
:100F40004CE00E9485028E81482F42954F709AE0B6
:100F5000499F402D11248F70480F82E064E10E9468
:100F6000FA0482E260E80E94401682E067E00E9494
:100F70002E168AE70E947D1180E490E00E94B9114C
:100F800029E8C22E20E0D22E8601F80181918F013E
:100F900090E00E94B911F0E000391F07B1F70E94FC
:100FA000D91182E260E80E94401681E067E00E9469
:100FB0002E168AE70E947D1180E490E00E94B9110C
:100FC0007801F80181918F0190E00E94B911F0E061
:100FD00007391F07B1F70E94D9118F81482F429519
:100FE0004F709AE0499F402D11248F70480F82E086
:100FF00069E20E94FA0487E360E80E94401682E0FA
:1010000067E00E942E168AE70E947D1180E490E03E
:101010000E94B911F60181916F0190E00E94B9110F
:10102000F0E9CF16F0E0DF06A9F70E94D91187E3B7
:1010300060E80E94401681E067E00E942E168AE771
:101040000E947D1180E490E00E94B911F701819126
:101050007F0190E00E94B911F7E9EF16F0E0FF067A
:10106000A9F70E94D91182E06EE342E00E942C04AD
:101070008885482F42954F709AE0499F402D112452
:101080008F70480F82E065E450E00E94BE048D81BD
:10109000815066E670E00E9471039AE0A92E0E94DA
:1010A0001805382E80E0BE016F5F7F4F0E94431508
:1010B000CB80CB1481F08FE1C822CB824C2D42959E
:1010C0004F704A9D402D11248C2D8F70480F85E064
:1010D00069E20E94FA04BA80B21469F04B2D42957D
:1010E0004F704A9D402D11248B2D8F70480F85E045
:1010F0006EE30E94FA041C811415C9F0112361F0FB
:1011000085E06CE44FE00E94850285E063E54CE0F9
:101110000E948502412E0BC085E06CE440E00E94F5
:10112000850285E063E54CE00E948502442483E06B
:10113000BE016B5F7F4F0E941B15DE80D71421F428
:10114000F52C8401E62C3AC04D2D42954F704A9DF6
:10115000402D11248D2D8F70480F82E064E10E9494
:10116000FA04EF80E61469F04E2D42954F704A9DC7
:10117000402D11248E2D8F70480F82E069E20E946D
:10118000FA04088519850815190571F0802F402F7C
:1011900042954F704A9D402D11248F70480F82E078
:1011A00065E450E00E94BE04FD80F51431F08F2DFF
:1011B000815066E670E00E9471037D2CE5E03E16EA
:1011C00031F02B2CBC2C5F2C48016E2C68CF81E0B9
:1011D00029960FB6F894DEBF0FBECDBFCF91DF9139
:1011E0001F910F91FF90EF90DF90CF90BF90AF9045
:1011F0009F908F907F906F905F904F903F902F9037
:101200000895DF92EF92FF920F931F93DF93CF9396
:1012100000D0CDB7DEB70E94880311E00E94180508
:10122000833069F4113041F481E00E94DB0183E0F6
:101230000E942F0113E0F2CF012F01500DC0843026
:1012400099F4133039F483E00E94DB0181E00E94BD
:101250002F01E3CF012F0F5F812F0E94DB01802F31
:101260000E942F01102FDACF863009F045C06EEFB3
:10127000E62E5BEAF52E0AEADD24D3940DC082E067
:10128000D81629F0EE244DEAF42E0CEA05C0EE241F
:10129000EA943BEAF32E0AEA0E947A11802F0E9418
:1012A0007D118E2D90E00E94B9118F2D0E949B110F
:1012B0000E94D211082F0E94D911E02FF0E0FA838A
:1012C000E9830E940A1589819A81807E90706CE37F
:1012D00070E00E94A717262F89819A818F719070E4
:1012E0006CE370E00E94A717822B0E94F514D39440
:1012F000F4E0DF1621F692CF853009F08FCF113060
:1013000019F40E94560509C0123019F40E94110701
:1013100004C0133011F40E94F40081E00F900F908C
:10132000CF91DF911F910F91FF90EF90DF90089583
:101330008F929F92AF92BF92CF92DF92EF92FF92E5
:101340000F931F93DF93CF93CDB7DEB769970FB697
:10135000F894DEBF0FBECDBF0E940901DE011196D9
:10136000EBEBF0E08AE001900D928150E1F77E0115
:101370000894E11CF11C870194E18BE0C82ED12C6C
:10138000CC0EDD1E802F8E19863011F4925F01C0C5
:10139000995F87E0692FF80141918F01998F0E9431
:1013A0008502998D0C151D0569F785E069E240E01D
:1013B0000E942C0485E060E341E00E942C0487E356
:1013C00060E80E94401685E067E00E942E168AE7DA
:1013D0000E947D1180E490E00E94B9110BE710E0BB
:1013E000F80181918F0190E00E94B911F0E002387C
:1013F0001F07B1F70E94D91187E360E80E944016E9
:1014000084E067E00E942E168AE70E947D1180E446
:1014100090E00E94B911F80181918F0190E00E9443
:10142000B911F0E009381F07B1F70E94D91185E022
:101430006EE340E00E942C0485E065E440E00E94F9
:101440002C0485E06CE440E00E94850285E063E5C1
:101450004CE00E94850282E064E142E00E942C049C
:1014600082E06BE148E00E942C04DE011B96EDEA6D
:10147000F0E08EE001900D928150E1F782E260E8A9
:101480000E94401682E067E00E942E168AE70E94C2
:101490007D1180E490E00E94B9111BE0C12ED12C97
:1014A000CC0EDD1E8601B2E1EB2EF12CEC0EFD1E02
:1014B000F80181918F0190E00E94B9110E151F056E
:1014C000B9F70E94D91182E260E80E94401681E0DB
:1014D00067E00E942E168AE70E947D1180E490E06A
:1014E0000E94B911A2E18A2E912C8C0E9D1E7801CA
:1014F000F9E1AF2EB12CAC0EBD1EF70181917F0139
:1015000090E00E94B911EA14FB04B9F70E94D911C6
:1015100082E069E241E00E942C0482E060E342E064
:101520000E942C0487E360E80E94401682E067E096
:101530000E942E168AE70E947D1180E490E00E94AE
:10154000B911F60181916F0190E00E94B911C016A6
:10155000D106B9F70E94D91187E360E80E944016CE
:1015600081E067E00E942E168AE70E947D1180E4E8
:1015700090E00E94B911F40181914F0190E00E9426
:10158000B9118E149F04B9F70E94D91182E06EE35D
:1015900042E00E942C0482E065E440E00E942C04BA
:1015A00082E06CE442E00E942C0482E063E543E0C8
:1015B0000E942C0482E061E643E10E94850282E001
:1015C00068E647E00E94850282E06FE644E10E94FF
:1015D0008502DD24DD2009F058C089E267E30E941E
:1015E000401683E067E00E942E168AE70E947D1174
:1015F00080E490E00E94B91110E080EC90E00E943D
:10160000B9111F5F1E30C9F70E94D91101E00E9475
:101610001805833059F4013039F485E069E24CE073
:101620000E94FA040CE0F3CF01500BC0843079F42F
:101630000C3031F485E069E241E00E94FA04E6CF23
:101640000F5F85E069E2402F0E94FA04E0CF853009
:10165000F1F689E267E30E94401683E067E00E94AA
:101660002E168AE70E947D1180E490E00E94B91155
:1016700010E080E090E00E94B9111F5F1E30C9F7B2
:10168000802F0E94A400B82E5BC0F1E0DF1609F0A5
:101690005AC08EE36CE40E94401683E067E00E942B
:1016A0002E168AE70E947D1180E490E00E94B91115
:1016B00010E080EC90E00E94B9111F5F1E30C9F766
:1016C0000E94D91100E00E941805833059F40023CC
:1016D00039F485E06EE34BE30E94FA040BE3F3CFA9
:1016E00001500BC0843079F40B3331F485E06EE3A4
:1016F00040E00E94FA04E6CF0F5F85E06EE3402FE2
:101700000E94FA04E0CF8530F1F68EE36CE40E948B
:10171000401683E067E00E942E168AE70E947D1142
:1017200080E490E00E94B91110E080E090E00E9417
:10173000B9111F5F1E30C9F7802F0E94A400A82E88
:101740000E94D91135C282E0D81609F04CC08CE451
:101750006AE50E94401683E067E00E942E168AE741
:101760000E947D1180E490E00E94B91110E080ECAD
:1017700090E00E94B9111F5F1E30C9F70E94D91175
:1017800000E00E941805182F8350823078F400235F
:1017900039F485E06CE44FE00E94850201E006C068
:1017A00085E06CE440E00E94850200E0153049F7D6
:1017B0008CE46AE50E94401683E067E00E942E16E2
:1017C0008AE70E947D1180E490E00E94B91110E048
:1017D00080E090E00E94B9111F5F1E30C9F70E949F
:1017E000D911902EE5C1E3E0DE1609F07EC08EE34C
:1017F0006AE50E94401680E067E00E942E168AE7A4
:101800000E947D1180E490E00E94B91110E080EC0C
:1018100090E00E94B9111F5F1C31C9F70E94D911D5
:1018200007EE17E00E941805833081F4F7E0073EC9
:101830001F0749F482E065E444E358E00E94BE04D7
:1018400004E318E0EFCF015010400FC0843099F44A
:1018500088E00433180739F482E065E447EE57E086
:101860000E94BE04DDCF0F5F1F4F82E065E4A80138
:101870000E94BE04D7CF8530A9F68EE36AE50E94A8
:10188000401680E067E00E942E168AE70E947D11D4
:1018900080E490E00E94B911FF2480E090E00E9473
:1018A000B911F394ECE1FE16C1F7C8016AE070E0EB
:1018B0000E949317482FC8016AE070E00E949317B6
:1018C000CB016AE070E00E9493179C01E3E0880F6F
:1018D000991FEA95E1F7220F331F820F931F840FA0
:1018E0000E94A400F82E88242BCFF4E0DF1609F024
:1018F00058C089E267E30E94401680E067E00E94DA
:101900002E168AE70E947D1180E490E00E94B911B2
:1019100010E080EC90E00E94B9111F5F1E30C9F703
:101920000E94D9110CE00E941805833051F4013057
:1019300031F482E069E24CE00E94FA04F3CF0150F6
:101940000CC0843081F40C3039F482E069E241E06B
:101950000E94FA0401E0E7CF0F5F82E069E2402FC6
:101960000E94FA04E0CF8530F1F689E267E30E9435
:10197000401680E067E00E942E168AE70E947D11E3
:1019800080E490E00E94B91110E080E090E00E94B5
:10199000B9111F5F1E30C9F7802F0E94A400E82EE6
:1019A000CFCE85E0D81609F09CC084E162E20E94A7
:1019B000401680E067E00E942E168AE70E947D11A3
:1019C00080E490E00E94B91110E080EC90E00E9469
:1019D000B9111F5F1E30C9F70E94D9111CE10E9486
:1019E00018058330A1F5113081F5E2E0EE1699F487
:1019F0008F2D982D0E948000882339F082E064E1C9
:101A00004DE10E94FA041DE1EACF82E064E14CE17D
:101A10000E94FA04E3CFF4E0EF1649F086E0E816FE
:101A200031F0E9E0EE1619F0FBE0EF1639F482E050
:101A300064E14EE10E94FA041EE1D1CF82E064E14C
:101A40004FE10E94FA041FE1CACF115025C0843033
:101A500049F582E0E81661F48F2D982D0E948000F0
:101A6000882319F01D31B9F414C01C31A1F411C040
:101A7000E4E0EE1649F0F6E0EF1631F089E0E81602
:101A800019F0EBE0EE1619F41E3129F402C01F31F3
:101A900011F411E001C01F5F82E064E1412F0E9458
:101AA000FA049DCF853009F09ACF84E162E20E946A
:101AB000401680E067E00E942E168AE70E947D11A2
:101AC00080E490E00E94B91100E080E090E00E9484
:101AD000B9110F5F0E30C9F7812F0E94A400C82EE4
:101AE0002FCE81E666E70E94401680E067E00E9404
:101AF0002E168AE70E947D1180E490E00E94B911C1
:101B000010E080EC90E00E94B9111F5F1531C9F719
:101B10000E94D91106E00E941805833071F401304B
:101B200039F486E066E670E00E94710307E0F3CFC7
:101B3000102F1150812F81500EC0843091F4073046
:101B400039F480E066E670E00E94710301E0E3CFC3
:101B5000102F1F5F802F66E670E00E947103012F37
:101B6000DACF8530C1F681E666E70E94401680E054
:101B700067E00E942E168AE70E947D1180E490E0C3
:101B80000E94B91110E080E090E00E94B9111F5F3F
:101B90001531C9F70E94D9118B2D6A2D40E0292DEE
:101BA0000E949715802F6C2D4E2D2F2D0E946F15A2
:101BB000D394F7E0DF1609F00DCD81E069960FB6FA
:101BC000F894DEBF0FBECDBFCF91DF911F910F9173
:101BD000FF90EF90DF90CF90BF90AF909F908F904D
:101BE0000895EF92FF920F931F93DF93CF93CDB79A
:101BF000DEB72D970FB6F894DEBF0FBECDBF0E94A3
:101C00000901DE011196E5ECF0E08DE001900D9206
:101C10008150E1F77E010894E11CF11C00E010E026
:101C2000153011F0193011F4025F01C0095F87E02F
:101C3000602FF70141917F010E9485021F5F1D30D7
:101C400079F792EDE92E90E0F92E00E083E0602F25
:101C500040E00E948502802F68E00E94401681E0EB
:101C600067E00E942E168AE70E947D1180E490E0D2
:101C70000E94B91110E083E090E00E94B9111F5F4B
:101C80001730C9F70E94D91110E00E94180583305F
:101C900051F4112331F4602F49E10E94850219E1CA
:101CA000F4CF11500BC0843079F4193131F483E052
:101CB000602F40E00E948502E7CF1F5F83E0602F26
:101CC000412F0E948502E1CF8530F9F6F70110839C
:101CD000802F68E00E94401681E067E00E942E1687
:101CE0008AE70E947D1180E490E00E94B91110E023
:101CF00080E090E00E94B9111F5F1730C9F70E9481
:101D0000D911095F0894E11CF11C033209F09ECF40
:101D10008AEA0E947D1189EF90E00E94B9118091BA
:101D2000D20090E00E94B9118091D30090E00E940F
:101D3000B9118091D40090E00E94B9118091D50032
:101D400090E00E94B9118091D60090E00E94B911F4
:101D50000E94D91181E02D960FB6F894DEBF0FBE18
:101D6000CDBFCF91DF911F910F91FF90EF9008951C
:101D700082E062E040E00E94130F82E062E00E9495
:101D80009B1082E063E041E00E94130F82E064E078
:101D900041E00E94130F82E065E041E00E94130FD2
:101DA00082E066E041E00E94130F82E063E041E0E0
:101DB0000E94BC0F82E064E041E00E94BC0F82E020
:101DC00065E041E00E94BC0F82E066E041E00E94D5
:101DD000BC0F0895813079F0813028F0823099F07D
:101DE000833001F518C0662311F41ABA08956F3FC5
:101DF000C9F46ABB0895662311F417BA08956F3FBA
:101E000089F467BB0895662311F414BA08956F3FEF
:101E100049F464BB0895662311F411BA08956F3F25
:101E200009F461BB0895813029F1813038F08230A6
:101E300009F43CC0833009F06EC053C0442361F400
:101E40002AB381E090E002C0880F991F6A95E2F7FB
:101E5000809582238ABB0895413009F05CC02AB383
:101E600081E090E002C0880F991F6A95E2F7282B65
:101E70002ABB0895442361F427B381E090E002C0B7
:101E8000880F991F6A95E2F78095822387BB089592
:101E9000413009F040C027B381E090E002C0880FD4
:101EA000991F6A95E2F7282B27BB0895442361F414
:101EB00024B381E090E002C0880F991F6A95E2F791
:101EC0008095822384BB0895413029F524B381E0B5
:101ED00090E002C0880F991F6A95E2F7282B24BB77
:101EE0000895442361F421B381E090E002C0880F9B
:101EF000991F6A95E2F78095822381BB089541304E
:101F000051F421B381E090E002C0880F991F6A95D7
:101F1000E2F7282B21BB0895662361F06F3FD9F4C7
:101F2000813021F1813000F1823011F1833019F5D7
:101F300062BB0895813049F0813028F0823039F059
:101F40008330C9F406C01BBA089518BA089515BAAB
:101F5000089512BA0895813049F0813028F0823016
:101F600039F0833041F406C06BBB089568BB089517
:101F700065BB089562BB08954423C9F1413009F05F
:101F80006EC0813099F0813030F08230D1F08330F2
:101F900009F065C021C02BB381E090E002C0880F3A
:101FA000991F6A95E2F7282B2BBB089528B381E08F
:101FB00090E002C0880F991F6A95E2F7282B28BB92
:101FC000089525B381E090E002C0880F991F6A95BB
:101FD000E2F7282B25BB089522B381E090E002C0F0
:101FE000880F991F6A95E2F7282B22BB089581304C
:101FF00099F0813028F08230D9F0833081F524C007
:102000002BB381E090E002C0880F991F6A95E2F738
:10201000809582238BBB089528B381E090E002C0B5
:10202000880F991F6A95E2F78095822388BB0895EF
:1020300025B381E090E002C0880F991F6A95E2F70E
:102040008095822385BB089522B381E090E002C091
:10205000880F991F6A95E2F78095822382BB0895C5
:10206000FB01813049F0813028F0823039F0833033
:1020700051F407C089B303C086B301C083B3808322
:10208000089580B380830895FA01813049F081304A
:1020900028F0823039F08330C1F40EC089B303C018
:1020A00086B301C083B390E002C0959587956A9589
:1020B000E2F781708083089580B390E002C0959527
:1020C00087956A95E2F7817080830895813091F059
:1020D000813028F08230C9F0833061F521C02BB304
:1020E00081E090E002C0880F991F6A95E2F72827E7
:1020F0002BBB089528B381E090E002C0880F991FA0
:102100006A95E2F7282728BB089525B381E090E07F
:1021100002C0880F991F6A95E2F7282725BB08950A
:1021200022B381E090E002C0880F991F6A95E2F720
:10213000282722BB0895813091F0813028F0823029
:10214000C9F0833061F521C02BB381E090E002C07B
:10215000880F991F6A95E2F7282B2BBB089528B3A7
:1021600081E090E002C0880F991F6A95E2F7282B62
:1021700028BB089525B381E090E002C0880F991F25
:102180006A95E2F7282B25BB089522B381E090E001
:1021900002C0880F991F6A95E2F7282B22BB089589
:1021A00090E0FC01EE0FFF1FE80FF91FE852FF4F10
:1021B00060835283418308951F93CF93DF93182F39
:1021C000C8EDD0E06881812F0E948717992319F408
:1021D000E981FA810995239680E0C73ED80791F7F7
:1021E000DF91CF911F9108950E94F1136091E70054
:1021F0006B3069F480919B00813069F58FEF80939B
:102200009B008AE08093E70080E06AE00DC06623CF
:1022100091F480919B008F3F81F481E080939B003B
:102220008093E70080E061E00E94E31380E690E0A5
:102230000E948C1308956B3070F480E00E94E313C9
:102240008091E70090919B00890F8093E70080E6E2
:1022500090E00E948C13089583E063E041E00E94C7
:10226000130F83E064E041E00E94130F80919C0013
:10227000813081F483E063E041E00E94BC0F83E0A1
:1022800064E040E00E94BC0F80919C0081958093A7
:102290009C0008958F3F79F483E063E040E00E9462
:1022A000BC0F83E064E041E00E94BC0F80919C0081
:1022B000819580939C00089583E062E041E00E9454
:1022C000130F83E062E00E946610089583E061E0EE
:1022D00041E00E94130F83E061E00E9466100895C0
:1022E00083E060E041E00E94130F83E060E00E9421
:1022F0006610089580E280B90895982F84EA86BF19
:1023000006B607FEFDCF81B1887F883011F080E0EE
:10231000089593B984E886BF06B607FEFDCF81B164
:10232000887F883111F481E00895803211F083E0D4
:10233000089582E00895982F84EA86BF06B607FEC6
:10234000FDCF81B1887F803111F080E0089593B98D
:1023500084E886BF06B607FEFDCF81B1887F803452
:1023600011F481E00895883411F083E0089582E04B
:10237000089583B984E886BF06B607FEFDCF81B114
:10238000887F883211F480E00895803311F082E074
:10239000089581E0089584EC86BF06B607FEFDCF60
:1023A00083B1089584E886BF06B607FEFDCF83B1EA
:1023B000089584E986BF06B604FCFDCF08958EBB60
:1023C0009FBB0895E199FECF9FBB8EBB6DBBE29A88
:1023D000E19A0895E199FECF9FBB8EBBE09A8DB341
:1023E00008958FB780688FBF08958FB780688FBFBB
:1023F0008BB780648BBF85B78E7F85BF85B78260C2
:1024000085BF08958FB780688FBF8BB780688BBFFB
:1024100085B7846085BF85B7886085BF08958FB70D
:1024200080688FBF8BB780628BBF84B78F7B84BF80
:1024300008959F92AF92BF92CF92DF92EF92FF9258
:102440000F931F93DF93CF930F92CDB7DEB781E049
:102450008983EE24FF245E010894A11CB11C93E63D
:10246000992E84E0C82ECE0C82E06C2D40E00E94B4
:10247000BC0F870103561F4FDD2482E06D2DA5019F
:102480000E9444108981882371F4F801808180932F
:10249000E80005C082E06D2DA5010E9444108981ED
:1024A0008823C1F304C0813011F49092E800D394E2
:1024B0000C5F1F4FF4E0DF1601F782E06C2D41E066
:1024C0000E94BC0F0894E11CF11C84E0E816F104A2
:1024D00041F68091E8000F90CF91DF911F910F910D
:1024E000FF90EF90DF90CF90BF90AF909F900895B6
:1024F00082E060E040E00E94130F82E061E040E093
:102500000E94130F82E062E040E00E94130F82E01D
:1025100063E040E00E94130F82E060E00E949B10A5
:1025200082E061E00E949B1082E062E00E949B10CA
:1025300082E063E00E949B1082E064E041E00E9440
:10254000130F82E065E041E00E94130F82E066E035
:1025500041E00E94130F82E067E041E00E94130F08
:1025600082E064E041E00E94BC0F82E065E041E06F
:102570000E94BC0F82E066E041E00E94BC0F82E056
:1025800067E041E00E94BC0F0895FF920F931F93F4
:10259000F82E83E061E041E00E94BC0F83E062E03E
:1025A00040E00E94BC0F83E063E040E00E94BC0F6B
:1025B0008BB39F2D907F8F70982B9BBB83E063E044
:1025C00041E00E94BC0F00ED17E0C8010197F1F750
:1025D00083E063E040E00E94BC0FC8010197F1F77F
:1025E0008BB3F29490EFF9228F708F298BBB83E02D
:1025F00063E041E00E94BC0FC8010197F1F783E05E
:1026000063E040E00E94BC0FC8010197F1F71F9101
:102610000F91FF9008959F92AF92BF92CF92DF9259
:10262000EF92FF920F931F937B018C01611571054F
:102630008105910511F480E30BC097FF0BC0109545
:102640000095F094E094E11CF11C011D111D8DE238
:102650000E94C512AA24BB246501992428C0C80180
:10266000B7012AE030E040E050E00E94DC17A60EFF
:10267000B71EC81ED91EC801B7012AE030E040E0ED
:1026800050E00E94DC17C901DA017C018D01E114E0
:10269000F1040105110551F0C601B5012AE030E051
:1026A00040E050E00E9468175B016C019394E114D4
:1026B000F1040105110599F619C0C601B5012AE01A
:1026C00030E040E050E00E94BA17862F805D0E9403
:1026D000C512C601B5012AE030E040E050E00E949A
:1026E000BA17C901DA015C016D019A94A114B10411
:1026F000C104D10411F704C080E30E94C5129A946A
:102700009920D1F71F910F91FF90EF90DF90CF901C
:10271000BF90AF909F900895CF93DF93EC0103C0DB
:102720000E94C512219688818823D1F7DF91CF912D
:102730000895FF920F931F93F82E83E061E040E02D
:102740000E94BC0F83E062E040E00E94BC0F83E087
:1027500063E040E00E94BC0F8BB39F2D907F8F7091
:10276000982B9BBB83E063E041E00E94BC0F00ED2F
:1027700017E0C8010197F1F783E063E040E00E94B1
:10278000BC0FC8010197F1F78BB3F29420EFF2224E
:102790008F708F298BBB83E063E041E00E94BC0F08
:1027A000C8010197F1F783E063E040E00E94BC0FAD
:1027B000C8010197F1F71F910F91FF90089581E0F3
:1027C0000E9499130895882329F4862F80580E9427
:1027D00099130895813021F4862F80540E94991313
:1027E000089580E064E041E00E94130F80E065E01E
:1027F00041E00E94130F80E066E041E00E94130F69
:1028000080E067E041E00E94130F83E061E041E077
:102810000E94130F83E062E041E00E94130F83E007
:1028200063E041E00E94130F83E30E94991382E367
:102830000E94991388E20E9499138CE00E949913D8
:1028400081E00E94991382E00E94991308958FB944
:10285000779BFECF8FB1089581E064E041E00E9454
:10286000BC0F089581E064E040E00E94BC0F089531
:1028700081E064E040E00E94130F81E065E040E009
:102880000E94130F81E066E041E00E94130F81E097
:1028900067E040E00E94130F80E48DB9089581E065
:1028A00064E041E00E94130F81E065E041E00E9496
:1028B000130F81E066E040E00E94130F81E067E0C3
:1028C00041E00E94130F83E58DB9089583B7877F98
:1028D00083BF83B78F7B83BF89B7816089BF89B787
:1028E0008D7F89BF089583B7816083BF83B78D7F54
:1028F00083BF83B7846083BF089583B78E7F83BF10
:1029000083B78D7F83BF83B78B7F83BF089528EE06
:1029100033E040E050E00E94681737E096958795D5
:10292000779567953A95D1F7272F382F492F552757
:102930002093E9003093EA004093EB005093EC00C1
:1029400020E031E040E050E0261B31094109510907
:102950002093ED003093EE004093EF005093F00091
:1029600022BF08950E9466140E94731426E237E085
:1029700008B600FEFDCF2150304088B7816088BF87
:1029800012161306ACF30E947D1408958CBF0895AF
:102990008D9A8FB58E7F8FBD8FB582608FBD8EB5BE
:1029A00088608EBD8EB580618EBD8FB58F7B8FBDEB
:1029B0008FB580688FBD08958EB58E7F8EBD8EB524
:1029C0008D7F8EBD8EB584608EBD08958EB58E7F51
:1029D0008EBD8EB58D7F8EBD8EB58B7F8EBD0895DD
:1029E0009BBD8ABD77BD66BD08958CB95D9BFECF4A
:1029F000089520E004C0ECB95D9BFECF2F5FFC0181
:102A0000E20FF11DE081EE23B1F708955F9BFECF49
:102A10008CB1089583E061E041E00E94130F83E0F0
:102A200060E040E00E94130F83E389B9539A549AFF
:102A300086E880BD0895FF920F931F93F82E8B01B7
:102A40000E947A1180ED0E947D118F2D90E00E94EE
:102A5000B91181ED0E949B110E94CB11F801808376
:102A60000E94CB11F80181830E94CB11F80182836F
:102A70000E94D211F801838314820E94D9111F9100
:102A80000F91FF900895FF920F931F93F82E8B01E3
:102A90000E947A1180ED0E947D118F2D90E00E949E
:102AA000B91181ED0E949B110E94CB11F801808326
:102AB0000E94CB11F80181830E94D211F801828318
:102AC00090E08072907025E0959587952A95E1F7C2
:102AD00083830E94D9111F910F91FF900895EF9267
:102AE000FF920F931F93182F062FF42EE22E0E94B1
:102AF0007A1180ED0E947D1183E090E00E94B9116F
:102B0000812F90E00E94B911802F90E00E94B911AE
:102B10008F2D90E00E94B9118E2D90E00E94B91186
:102B20000E94D9111F910F91FF90EF900895EF929D
:102B3000FF920F931F93082FE62EF42E122F0E9460
:102B40007A1180ED0E947D1180E090E00E94B91121
:102B50008F2D90E00E94B9118E2D90E00E94B91146
:102B600000641295110F107E812F802B90E00E943F
:102B7000B9110E94D9111F910F91FF90EF90089504
:102B80000E947A110E940B170E94B80E82E067E043
:102B900041E00E94130F0E94DF008F3F39F40E9432
:102BA000F10D0E949809882341F40CC00E94DF00B7
:102BB000813041F40E940109FDCF0E94BF000E94B4
:102BC0000109FDCFFFCFAF92BF92CF92DF92EF927C
:102BD000FF920F931F93CF93DF93EC015A016B0188
:102BE0000E947A118AE70E947D1180E490E00E94A1
:102BF000B911EE24FF2487010CC0FE01EE0DFF1D6C
:102C0000808190E00E94B9110894E11CF11C011D23
:102C1000111DEA14FB040C051D0578F30E94D9115F
:102C2000DF91CF911F910F91FF90EF90DF90CF90A8
:102C3000BF90AF9008951F93182F0E947A118AE7D2
:102C40000E947D1180E090E00E94B911812F90E0F8
:102C50000E94B9110E94D9111F9108950F931F93DB
:102C6000182F062F82E20E941B16812F87700E9468
:102C70001B16802F87700E941B161F910F910895BD
:102C80000F931F93182F062F81E20E941B16812F8E
:102C90000E941B16802F0E941B161F910F910895F2
:102CA0001F93182F80E00E941B16812F0E941B1675
:102CB0001F9108958770806B0E941B160895EF92F4
:102CC000FF920F931F93DF93CF93CDB7DEB7C0581A
:102CD000D0400FB6F894DEBF0FBECDBF8E010F5FA0
:102CE0001F4F80E8F80111928A95E9F782E00E946F
:102CF0005016FF24E02E012F8F2D0E945A168E2D84
:102D0000902F40E850E060E070E00E94E315F394FB
:102D1000F8E0FF1689F7C058DF4F0FB6F894DEBF12
:102D20000FBECDBFCF91DF911F910F91FF90EF901C
:102D30000895846A0E941B1608958E620E941B16D5
:102D40000895866A0E941B1608951F93182F8DE818
:102D50000E941B16110F110F812F80610E941B16FC
:102D60001F9108951F93182F88EA0E941B16812F28
:102D70008F730E941B161F9108950F931F93082FA6
:102D8000162F85ED0E941B161295107F0F70812F54
:102D9000802B0E941B161F910F9108951F93182FCF
:102DA00081E80E941B16812F0E941B161F91089517
:102DB0000F931F93182F062F8AED0E941B16129552
:102DC000107F12600295000F007E802F812B0E94E1
:102DD0001B161F910F910895880F880F880F806C24
:102DE0000E941B160895806A0E941B1608958F7317
:102DF00080640E941B1608951F93182F83ED0E9474
:102E00001B16812F8F730E941B161F9108958E6AC7
:102E10000E941B16089580E00E94071780E00E9420
:102E2000FC1680E00E94F71681E00E94F31680E015
:102E30000E94EC1681E060E00E94D8168FE70E94A5
:102E4000CE1680E068E00E94BD168FE30E94B216A5
:102E500081E00E94A51680E00E94A11680E00E94F9
:102E60009D1681E00E94071780E00E9499160E943B
:102E70005F1608950F931F93CF93DF93EC01162FE6
:102E800080E06FE70E944016812F67E00E942E16B7
:102E90000E947A118AE70E947D1180E490E00E94EE
:102EA000B911179511271795012F015808C0FE0178
:102EB000E10FF11D808190E00E94B9111F5F0117A1
:102EC000B0F70E94D911DF91CF911F910F91089512
:102ED000629FD001739FF001829FE00DF11D649FFE
:102EE000E00DF11D929FF00D839FF00D749FF00D8A
:102EF000659FF00D9927729FB00DE11DF91F639F2B
:102F0000B00DE11DF91FBD01CF0111240895991BDA
:102F100079E004C0991F961708F0961B881F7A95D0
:102F2000C9F780950895AA1BBB1B51E107C0AA1FD2
:102F3000BB1FA617B70710F0A61BB70B881F991F5A
:102F40005A95A9F780959095BC01CD01089597FBFE
:102F5000092E07260AD077FD04D0E5DF06D0002031
:102F60001AF4709561957F4F0895F6F790958195C5
:102F70009F4F0895A1E21A2EAA1BBB1BFD010DC095
:102F8000AA1FBB1FEE1FFF1FA217B307E407F50719
:102F900020F0A21BB30BE40BF50B661F771F881FF5
:102FA000991F1A9469F760957095809590959B018B
:102FB000AC01BD01CF01089597FB092E05260ED067
:102FC00057FD04D0D7DF0AD0001C38F45095409547
:102FD000309521953F4F4F4F5F4F0895F6F79095ED
:102FE0008095709561957F4F8F4F9F4F0895E19920
:102FF000FECF9FBB8EBBE09A99278DB30895F894BE
:02300000FFCF00
:1030020041686D65640012001312140D0C0E0D134D
:1030120014041604031307140511080000003000FD
:103022000000000000C000000000010101010100D9
:10303200000000000000000005030101010708096B
:103042000004050600010203000000000000010167
:103052000101010000000000000000000309141239
:103062001313080C04040D130411180E14110D008F
:023072000C044C
:00000001FF
